{
	"simplestorage.sol/simplestorage.sol": {
		"SimpleStorage": {
			"abi": [
				{
					"inputs": [],
					"name": "activateContract",
					"outputs": [],
					"stateMutability": "nonpayable",
					"type": "function"
				},
				{
					"inputs": [
						{
							"internalType": "uint256",
							"name": "_number",
							"type": "uint256"
						}
					],
					"name": "addFavoriteNumber",
					"outputs": [],
					"stateMutability": "nonpayable",
					"type": "function"
				},
				{
					"inputs": [
						{
							"internalType": "string",
							"name": "_name",
							"type": "string"
						},
						{
							"internalType": "uint256",
							"name": "_favoriteNumber",
							"type": "uint256"
						}
					],
					"name": "addPerson",
					"outputs": [],
					"stateMutability": "nonpayable",
					"type": "function"
				},
				{
					"inputs": [],
					"name": "callInternalFuction",
					"outputs": [
						{
							"internalType": "string",
							"name": "",
							"type": "string"
						}
					],
					"stateMutability": "pure",
					"type": "function"
				},
				{
					"inputs": [],
					"name": "deactivateContract",
					"outputs": [],
					"stateMutability": "nonpayable",
					"type": "function"
				},
				{
					"inputs": [],
					"name": "externalFunction",
					"outputs": [
						{
							"internalType": "string",
							"name": "",
							"type": "string"
						}
					],
					"stateMutability": "pure",
					"type": "function"
				},
				{
					"inputs": [
						{
							"internalType": "uint256",
							"name": "",
							"type": "uint256"
						}
					],
					"name": "favoriteNumbers",
					"outputs": [
						{
							"internalType": "uint256",
							"name": "",
							"type": "uint256"
						}
					],
					"stateMutability": "view",
					"type": "function"
				},
				{
					"inputs": [],
					"name": "getFavoriteNumber",
					"outputs": [
						{
							"internalType": "uint256",
							"name": "",
							"type": "uint256"
						}
					],
					"stateMutability": "view",
					"type": "function"
				},
				{
					"inputs": [],
					"name": "isActive",
					"outputs": [
						{
							"internalType": "bool",
							"name": "",
							"type": "bool"
						}
					],
					"stateMutability": "view",
					"type": "function"
				},
				{
					"inputs": [
						{
							"internalType": "uint256",
							"name": "_compareValue",
							"type": "uint256"
						}
					],
					"name": "isGreaterThan",
					"outputs": [
						{
							"internalType": "bool",
							"name": "",
							"type": "bool"
						}
					],
					"stateMutability": "view",
					"type": "function"
				},
				{
					"inputs": [
						{
							"internalType": "uint256",
							"name": "",
							"type": "uint256"
						}
					],
					"name": "people",
					"outputs": [
						{
							"internalType": "string",
							"name": "name",
							"type": "string"
						},
						{
							"internalType": "uint256",
							"name": "favoriteNumber",
							"type": "uint256"
						}
					],
					"stateMutability": "view",
					"type": "function"
				},
				{
					"inputs": [],
					"name": "state",
					"outputs": [
						{
							"internalType": "enum SimpleStorage.ContractState",
							"name": "",
							"type": "uint8"
						}
					],
					"stateMutability": "view",
					"type": "function"
				},
				{
					"inputs": [
						{
							"internalType": "uint256",
							"name": "_favoriteNumber",
							"type": "uint256"
						}
					],
					"name": "storeNumber",
					"outputs": [],
					"stateMutability": "nonpayable",
					"type": "function"
				},
				{
					"inputs": [],
					"name": "sumFavorite",
					"outputs": [
						{
							"internalType": "uint256",
							"name": "",
							"type": "uint256"
						}
					],
					"stateMutability": "view",
					"type": "function"
				},
				{
					"inputs": [],
					"name": "textExternalFuction",
					"outputs": [
						{
							"internalType": "string",
							"name": "",
							"type": "string"
						}
					],
					"stateMutability": "view",
					"type": "function"
				}
			],
			"devdoc": {
				"kind": "dev",
				"methods": {},
				"version": 1
			},
			"evm": {
				"assembly": "    /* \"simplestorage.sol/simplestorage.sol\":58:3061  contract SimpleStorage {... */\n  mstore(0x40, 0x80)\n  callvalue\n  dup1\n  iszero\n  tag_1\n  jumpi\n  0x00\n  dup1\n  revert\ntag_1:\n  pop\n  dataSize(sub_0)\n  dup1\n  dataOffset(sub_0)\n  0x00\n  codecopy\n  0x00\n  return\nstop\n\nsub_0: assembly {\n        /* \"simplestorage.sol/simplestorage.sol\":58:3061  contract SimpleStorage {... */\n      mstore(0x40, 0x80)\n      callvalue\n      dup1\n      iszero\n      tag_1\n      jumpi\n      0x00\n      dup1\n      revert\n    tag_1:\n      pop\n      jumpi(tag_2, lt(calldatasize, 0x04))\n      shr(0xe0, calldataload(0x00))\n      dup1\n      0x8fda356d\n      gt\n      tag_18\n      jumpi\n      dup1\n      0xb6339418\n      gt\n      tag_19\n      jumpi\n      dup1\n      0xb6339418\n      eq\n      tag_14\n      jumpi\n      dup1\n      0xbca353be\n      eq\n      tag_15\n      jumpi\n      dup1\n      0xc19d93fb\n      eq\n      tag_16\n      jumpi\n      dup1\n      0xcb6a33f8\n      eq\n      tag_17\n      jumpi\n      jump(tag_2)\n    tag_19:\n      dup1\n      0x8fda356d\n      eq\n      tag_10\n      jumpi\n      dup1\n      0x9e7a13ad\n      eq\n      tag_11\n      jumpi\n      dup1\n      0xa621d15e\n      eq\n      tag_12\n      jumpi\n      dup1\n      0xa7e1a364\n      eq\n      tag_13\n      jumpi\n      jump(tag_2)\n    tag_18:\n      dup1\n      0x3a32b549\n      gt\n      tag_20\n      jumpi\n      dup1\n      0x3a32b549\n      eq\n      tag_6\n      jumpi\n      dup1\n      0x55987940\n      eq\n      tag_7\n      jumpi\n      dup1\n      0x6f760f41\n      eq\n      tag_8\n      jumpi\n      dup1\n      0x8e89b43d\n      eq\n      tag_9\n      jumpi\n      jump(tag_2)\n    tag_20:\n      dup1\n      0x22f3e2d4\n      eq\n      tag_3\n      jumpi\n      dup1\n      0x29cd1d96\n      eq\n      tag_4\n      jumpi\n      dup1\n      0x2fb4b0c7\n      eq\n      tag_5\n      jumpi\n    tag_2:\n      0x00\n      dup1\n      revert\n        /* \"simplestorage.sol/simplestorage.sol\":2959:3059  function isActive() public view returns (bool) {... */\n    tag_3:\n      tag_21\n      tag_22\n      jump\t// in\n    tag_21:\n      mload(0x40)\n      tag_23\n      swap2\n      swap1\n      tag_24\n      jump\t// in\n    tag_23:\n      mload(0x40)\n      dup1\n      swap2\n      sub\n      swap1\n      return\n        /* \"simplestorage.sol/simplestorage.sol\":161:193  uint256[] public favoriteNumbers */\n    tag_4:\n      tag_25\n      0x04\n      dup1\n      calldatasize\n      sub\n      dup2\n      add\n      swap1\n      tag_26\n      swap2\n      swap1\n      tag_27\n      jump\t// in\n    tag_26:\n      tag_28\n      jump\t// in\n    tag_25:\n      mload(0x40)\n      tag_29\n      swap2\n      swap1\n      tag_30\n      jump\t// in\n    tag_29:\n      mload(0x40)\n      dup1\n      swap2\n      sub\n      swap1\n      return\n        /* \"simplestorage.sol/simplestorage.sol\":2309:2489  function textExternalFuction() public view returns (string memory) {... */\n    tag_5:\n      tag_31\n      tag_32\n      jump\t// in\n    tag_31:\n      mload(0x40)\n      tag_33\n      swap2\n      swap1\n      tag_34\n      jump\t// in\n    tag_33:\n      mload(0x40)\n      dup1\n      swap2\n      sub\n      swap1\n      return\n        /* \"simplestorage.sol/simplestorage.sol\":2124:2303  function externalFunction() external pure returns (string memory) {... */\n    tag_6:\n      tag_35\n      tag_36\n      jump\t// in\n    tag_35:\n      mload(0x40)\n      tag_37\n      swap2\n      swap1\n      tag_34\n      jump\t// in\n    tag_37:\n      mload(0x40)\n      dup1\n      swap2\n      sub\n      swap1\n      return\n        /* \"simplestorage.sol/simplestorage.sol\":1357:1550  function sumFavorite() public view returns (uint256) {... */\n    tag_7:\n      tag_38\n      tag_39\n      jump\t// in\n    tag_38:\n      mload(0x40)\n      tag_40\n      swap2\n      swap1\n      tag_30\n      jump\t// in\n    tag_40:\n      mload(0x40)\n      dup1\n      swap2\n      sub\n      swap1\n      return\n        /* \"simplestorage.sol/simplestorage.sol\":2620:2752  function addPerson(string memory _name, uint256 _favoriteNumber) public {... */\n    tag_8:\n      tag_41\n      0x04\n      dup1\n      calldatasize\n      sub\n      dup2\n      add\n      swap1\n      tag_42\n      swap2\n      swap1\n      tag_43\n      jump\t// in\n    tag_42:\n      tag_44\n      jump\t// in\n    tag_41:\n      stop\n        /* \"simplestorage.sol/simplestorage.sol\":1953:2118  function callInternalFuction() public pure returns (string memory) {... */\n    tag_9:\n      tag_45\n      tag_46\n      jump\t// in\n    tag_45:\n      mload(0x40)\n      tag_47\n      swap2\n      swap1\n      tag_34\n      jump\t// in\n    tag_47:\n      mload(0x40)\n      dup1\n      swap2\n      sub\n      swap1\n      return\n        /* \"simplestorage.sol/simplestorage.sol\":2783:2863  function activateContract() public {... */\n    tag_10:\n      tag_48\n      tag_49\n      jump\t// in\n    tag_48:\n      stop\n        /* \"simplestorage.sol/simplestorage.sol\":441:463  Person[] public people */\n    tag_11:\n      tag_50\n      0x04\n      dup1\n      calldatasize\n      sub\n      dup2\n      add\n      swap1\n      tag_51\n      swap2\n      swap1\n      tag_27\n      jump\t// in\n    tag_51:\n      tag_52\n      jump\t// in\n    tag_50:\n      mload(0x40)\n      tag_53\n      swap3\n      swap2\n      swap1\n      tag_54\n      jump\t// in\n    tag_53:\n      mload(0x40)\n      dup1\n      swap2\n      sub\n      swap1\n      return\n        /* \"simplestorage.sol/simplestorage.sol\":932:1029  function getFavoriteNumber() public view returns (uint256) {... */\n    tag_12:\n      tag_55\n      tag_56\n      jump\t// in\n    tag_55:\n      mload(0x40)\n      tag_57\n      swap2\n      swap1\n      tag_30\n      jump\t// in\n    tag_57:\n      mload(0x40)\n      dup1\n      swap2\n      sub\n      swap1\n      return\n        /* \"simplestorage.sol/simplestorage.sol\":2495:2592  function addFavoriteNumber(uint256 _number) public {... */\n    tag_13:\n      tag_58\n      0x04\n      dup1\n      calldatasize\n      sub\n      dup2\n      add\n      swap1\n      tag_59\n      swap2\n      swap1\n      tag_27\n      jump\t// in\n    tag_59:\n      tag_60\n      jump\t// in\n    tag_58:\n      stop\n        /* \"simplestorage.sol/simplestorage.sol\":824:926  function storeNumber(uint256 _favoriteNumber) public {... */\n    tag_14:\n      tag_61\n      0x04\n      dup1\n      calldatasize\n      sub\n      dup2\n      add\n      swap1\n      tag_62\n      swap2\n      swap1\n      tag_27\n      jump\t// in\n    tag_62:\n      tag_63\n      jump\t// in\n    tag_61:\n      stop\n        /* \"simplestorage.sol/simplestorage.sol\":2869:2953  function deactivateContract() public {... */\n    tag_15:\n      tag_64\n      tag_65\n      jump\t// in\n    tag_64:\n      stop\n        /* \"simplestorage.sol/simplestorage.sol\":737:763  ContractState public state */\n    tag_16:\n      tag_66\n      tag_67\n      jump\t// in\n    tag_66:\n      mload(0x40)\n      tag_68\n      swap2\n      swap1\n      tag_69\n      jump\t// in\n    tag_68:\n      mload(0x40)\n      dup1\n      swap2\n      sub\n      swap1\n      return\n        /* \"simplestorage.sol/simplestorage.sol\":1035:1239  function isGreaterThan(uint256 _compareValue) public view returns (bool) {... */\n    tag_17:\n      tag_70\n      0x04\n      dup1\n      calldatasize\n      sub\n      dup2\n      add\n      swap1\n      tag_71\n      swap2\n      swap1\n      tag_27\n      jump\t// in\n    tag_71:\n      tag_72\n      jump\t// in\n    tag_70:\n      mload(0x40)\n      tag_73\n      swap2\n      swap1\n      tag_24\n      jump\t// in\n    tag_73:\n      mload(0x40)\n      dup1\n      swap2\n      sub\n      swap1\n      return\n        /* \"simplestorage.sol/simplestorage.sol\":2959:3059  function isActive() public view returns (bool) {... */\n    tag_22:\n        /* \"simplestorage.sol/simplestorage.sol\":3000:3004  bool */\n      0x00\n        /* \"simplestorage.sol/simplestorage.sol\":3032:3052  ContractState.Active */\n      dup1\n        /* \"simplestorage.sol/simplestorage.sol\":3023:3052  state == ContractState.Active */\n      0x01\n      dup2\n      gt\n      iszero\n      tag_75\n      jumpi\n      tag_76\n      tag_77\n      jump\t// in\n    tag_76:\n    tag_75:\n        /* \"simplestorage.sol/simplestorage.sol\":3023:3028  state */\n      0x03\n      0x00\n      swap1\n      sload\n      swap1\n      0x0100\n      exp\n      swap1\n      div\n      0xff\n      and\n        /* \"simplestorage.sol/simplestorage.sol\":3023:3052  state == ContractState.Active */\n      0x01\n      dup2\n      gt\n      iszero\n      tag_78\n      jumpi\n      tag_79\n      tag_77\n      jump\t// in\n    tag_79:\n    tag_78:\n      eq\n        /* \"simplestorage.sol/simplestorage.sol\":3016:3052  return state == ContractState.Active */\n      swap1\n      pop\n        /* \"simplestorage.sol/simplestorage.sol\":2959:3059  function isActive() public view returns (bool) {... */\n      swap1\n      jump\t// out\n        /* \"simplestorage.sol/simplestorage.sol\":161:193  uint256[] public favoriteNumbers */\n    tag_28:\n      0x01\n      dup2\n      dup2\n      sload\n      dup2\n      lt\n      tag_80\n      jumpi\n      0x00\n      dup1\n      revert\n    tag_80:\n      swap1\n      0x00\n      mstore\n      keccak256(0x00, 0x20)\n      add\n      0x00\n      swap2\n      pop\n      swap1\n      pop\n      sload\n      dup2\n      jump\t// out\n        /* \"simplestorage.sol/simplestorage.sol\":2309:2489  function textExternalFuction() public view returns (string memory) {... */\n    tag_32:\n        /* \"simplestorage.sol/simplestorage.sol\":2361:2374  string memory */\n      0x60\n        /* \"simplestorage.sol/simplestorage.sol\":2393:2397  this */\n      address\n        /* \"simplestorage.sol/simplestorage.sol\":2393:2417  this.textExternalFuction */\n      0xffffffffffffffffffffffffffffffffffffffff\n      and\n      0x2fb4b0c7\n        /* \"simplestorage.sol/simplestorage.sol\":2393:2419  this.textExternalFuction() */\n      mload(0x40)\n      dup2\n      0xffffffff\n      and\n      0xe0\n      shl\n      dup2\n      mstore\n      0x04\n      add\n      0x00\n      mload(0x40)\n      dup1\n      dup4\n      sub\n      dup2\n      dup7\n      gas\n      staticcall\n      iszero\n      dup1\n      iszero\n      tag_84\n      jumpi\n      returndatasize\n      0x00\n      dup1\n      returndatacopy\n      revert(0x00, returndatasize)\n    tag_84:\n      pop\n      pop\n      pop\n      pop\n      mload(0x40)\n      returndatasize\n      0x00\n      dup3\n      returndatacopy\n      returndatasize\n      not(0x1f)\n      0x1f\n      dup3\n      add\n      and\n      dup3\n      add\n      dup1\n      0x40\n      mstore\n      pop\n      dup2\n      add\n      swap1\n      tag_85\n      swap2\n      swap1\n      tag_86\n      jump\t// in\n    tag_85:\n        /* \"simplestorage.sol/simplestorage.sol\":2386:2419  return this.textExternalFuction() */\n      swap1\n      pop\n        /* \"simplestorage.sol/simplestorage.sol\":2309:2489  function textExternalFuction() public view returns (string memory) {... */\n      swap1\n      jump\t// out\n        /* \"simplestorage.sol/simplestorage.sol\":2124:2303  function externalFunction() external pure returns (string memory) {... */\n    tag_36:\n        /* \"simplestorage.sol/simplestorage.sol\":2175:2188  string memory */\n      0x60\n        /* \"simplestorage.sol/simplestorage.sol\":2200:2237  return \"This is an external function\" */\n      mload(0x40)\n      dup1\n      0x40\n      add\n      0x40\n      mstore\n      dup1\n      0x1c\n      dup2\n      mstore\n      0x20\n      add\n      0x5468697320697320616e2065787465726e616c2066756e6374696f6e00000000\n      dup2\n      mstore\n      pop\n      swap1\n      pop\n        /* \"simplestorage.sol/simplestorage.sol\":2124:2303  function externalFunction() external pure returns (string memory) {... */\n      swap1\n      jump\t// out\n        /* \"simplestorage.sol/simplestorage.sol\":1357:1550  function sumFavorite() public view returns (uint256) {... */\n    tag_39:\n        /* \"simplestorage.sol/simplestorage.sol\":1401:1408  uint256 */\n      0x00\n        /* \"simplestorage.sol/simplestorage.sol\":1420:1431  uint256 sum */\n      dup1\n        /* \"simplestorage.sol/simplestorage.sol\":1434:1435  0 */\n      0x00\n        /* \"simplestorage.sol/simplestorage.sol\":1420:1435  uint256 sum = 0 */\n      swap1\n      pop\n        /* \"simplestorage.sol/simplestorage.sol\":1450:1459  uint256 i */\n      0x00\n        /* \"simplestorage.sol/simplestorage.sol\":1462:1463  1 */\n      0x01\n        /* \"simplestorage.sol/simplestorage.sol\":1450:1463  uint256 i = 1 */\n      swap1\n      pop\n        /* \"simplestorage.sol/simplestorage.sol\":1445:1524  for (uint256 i = 1; i <= favoriteNumber; i++) {... */\n    tag_89:\n        /* \"simplestorage.sol/simplestorage.sol\":1470:1484  favoriteNumber */\n      sload(0x00)\n        /* \"simplestorage.sol/simplestorage.sol\":1465:1466  i */\n      dup2\n        /* \"simplestorage.sol/simplestorage.sol\":1465:1484  i <= favoriteNumber */\n      gt\n        /* \"simplestorage.sol/simplestorage.sol\":1445:1524  for (uint256 i = 1; i <= favoriteNumber; i++) {... */\n      tag_90\n      jumpi\n        /* \"simplestorage.sol/simplestorage.sol\":1512:1513  i */\n      dup1\n        /* \"simplestorage.sol/simplestorage.sol\":1505:1513  sum += i */\n      dup3\n      tag_92\n      swap2\n      swap1\n      tag_93\n      jump\t// in\n    tag_92:\n      swap2\n      pop\n        /* \"simplestorage.sol/simplestorage.sol\":1486:1489  i++ */\n      dup1\n      dup1\n      tag_94\n      swap1\n      tag_95\n      jump\t// in\n    tag_94:\n      swap2\n      pop\n      pop\n        /* \"simplestorage.sol/simplestorage.sol\":1445:1524  for (uint256 i = 1; i <= favoriteNumber; i++) {... */\n      jump(tag_89)\n    tag_90:\n      pop\n        /* \"simplestorage.sol/simplestorage.sol\":1540:1543  sum */\n      dup1\n        /* \"simplestorage.sol/simplestorage.sol\":1533:1543  return sum */\n      swap2\n      pop\n      pop\n        /* \"simplestorage.sol/simplestorage.sol\":1357:1550  function sumFavorite() public view returns (uint256) {... */\n      swap1\n      jump\t// out\n        /* \"simplestorage.sol/simplestorage.sol\":2620:2752  function addPerson(string memory _name, uint256 _favoriteNumber) public {... */\n    tag_44:\n        /* \"simplestorage.sol/simplestorage.sol\":2702:2708  people */\n      0x02\n        /* \"simplestorage.sol/simplestorage.sol\":2714:2744  Person(_name, _favoriteNumber) */\n      mload(0x40)\n      dup1\n      0x40\n      add\n      0x40\n      mstore\n      dup1\n        /* \"simplestorage.sol/simplestorage.sol\":2721:2726  _name */\n      dup5\n        /* \"simplestorage.sol/simplestorage.sol\":2714:2744  Person(_name, _favoriteNumber) */\n      dup2\n      mstore\n      0x20\n      add\n        /* \"simplestorage.sol/simplestorage.sol\":2728:2743  _favoriteNumber */\n      dup4\n        /* \"simplestorage.sol/simplestorage.sol\":2714:2744  Person(_name, _favoriteNumber) */\n      dup2\n      mstore\n      pop\n        /* \"simplestorage.sol/simplestorage.sol\":2702:2745  people.push(Person(_name, _favoriteNumber)) */\n      swap1\n      dup1\n      0x01\n      dup2\n      sload\n      add\n      dup1\n      dup3\n      sstore\n      dup1\n      swap2\n      pop\n      pop\n      0x01\n      swap1\n      sub\n      swap1\n      0x00\n      mstore\n      keccak256(0x00, 0x20)\n      swap1\n      0x02\n      mul\n      add\n      0x00\n      swap1\n      swap2\n      swap1\n      swap2\n      swap1\n      swap2\n      pop\n      0x00\n      dup3\n      add\n      mload\n      dup2\n      0x00\n      add\n      swap1\n      dup2\n      tag_98\n      swap2\n      swap1\n      tag_99\n      jump\t// in\n    tag_98:\n      pop\n      0x20\n      dup3\n      add\n      mload\n      dup2\n      0x01\n      add\n      sstore\n      pop\n      pop\n        /* \"simplestorage.sol/simplestorage.sol\":2620:2752  function addPerson(string memory _name, uint256 _favoriteNumber) public {... */\n      pop\n      pop\n      jump\t// out\n        /* \"simplestorage.sol/simplestorage.sol\":1953:2118  function callInternalFuction() public pure returns (string memory) {... */\n    tag_46:\n        /* \"simplestorage.sol/simplestorage.sol\":2005:2018  string memory */\n      0x60\n        /* \"simplestorage.sol/simplestorage.sol\":2037:2055  internalFunction() */\n      tag_101\n        /* \"simplestorage.sol/simplestorage.sol\":2037:2053  internalFunction */\n      tag_102\n        /* \"simplestorage.sol/simplestorage.sol\":2037:2055  internalFunction() */\n      jump\t// in\n    tag_101:\n        /* \"simplestorage.sol/simplestorage.sol\":2030:2055  return internalFunction() */\n      swap1\n      pop\n        /* \"simplestorage.sol/simplestorage.sol\":1953:2118  function callInternalFuction() public pure returns (string memory) {... */\n      swap1\n      jump\t// out\n        /* \"simplestorage.sol/simplestorage.sol\":2783:2863  function activateContract() public {... */\n    tag_49:\n        /* \"simplestorage.sol/simplestorage.sol\":2836:2856  ContractState.Active */\n      0x00\n        /* \"simplestorage.sol/simplestorage.sol\":2828:2833  state */\n      0x03\n      0x00\n        /* \"simplestorage.sol/simplestorage.sol\":2828:2856  state = ContractState.Active */\n      0x0100\n      exp\n      dup2\n      sload\n      dup2\n      0xff\n      mul\n      not\n      and\n      swap1\n      dup4\n      0x01\n      dup2\n      gt\n      iszero\n      tag_104\n      jumpi\n      tag_105\n      tag_77\n      jump\t// in\n    tag_105:\n    tag_104:\n      mul\n      or\n      swap1\n      sstore\n      pop\n        /* \"simplestorage.sol/simplestorage.sol\":2783:2863  function activateContract() public {... */\n      jump\t// out\n        /* \"simplestorage.sol/simplestorage.sol\":441:463  Person[] public people */\n    tag_52:\n      0x02\n      dup2\n      dup2\n      sload\n      dup2\n      lt\n      tag_106\n      jumpi\n      0x00\n      dup1\n      revert\n    tag_106:\n      swap1\n      0x00\n      mstore\n      keccak256(0x00, 0x20)\n      swap1\n      0x02\n      mul\n      add\n      0x00\n      swap2\n      pop\n      swap1\n      pop\n      dup1\n      0x00\n      add\n      dup1\n      sload\n      tag_108\n      swap1\n      tag_109\n      jump\t// in\n    tag_108:\n      dup1\n      0x1f\n      add\n      0x20\n      dup1\n      swap2\n      div\n      mul\n      0x20\n      add\n      mload(0x40)\n      swap1\n      dup2\n      add\n      0x40\n      mstore\n      dup1\n      swap3\n      swap2\n      swap1\n      dup2\n      dup2\n      mstore\n      0x20\n      add\n      dup3\n      dup1\n      sload\n      tag_110\n      swap1\n      tag_109\n      jump\t// in\n    tag_110:\n      dup1\n      iszero\n      tag_111\n      jumpi\n      dup1\n      0x1f\n      lt\n      tag_112\n      jumpi\n      0x0100\n      dup1\n      dup4\n      sload\n      div\n      mul\n      dup4\n      mstore\n      swap2\n      0x20\n      add\n      swap2\n      jump(tag_111)\n    tag_112:\n      dup3\n      add\n      swap2\n      swap1\n      0x00\n      mstore\n      keccak256(0x00, 0x20)\n      swap1\n    tag_113:\n      dup2\n      sload\n      dup2\n      mstore\n      swap1\n      0x01\n      add\n      swap1\n      0x20\n      add\n      dup1\n      dup4\n      gt\n      tag_113\n      jumpi\n      dup3\n      swap1\n      sub\n      0x1f\n      and\n      dup3\n      add\n      swap2\n    tag_111:\n      pop\n      pop\n      pop\n      pop\n      pop\n      swap1\n      dup1\n      0x01\n      add\n      sload\n      swap1\n      pop\n      dup3\n      jump\t// out\n        /* \"simplestorage.sol/simplestorage.sol\":932:1029  function getFavoriteNumber() public view returns (uint256) {... */\n    tag_56:\n        /* \"simplestorage.sol/simplestorage.sol\":982:989  uint256 */\n      0x00\n        /* \"simplestorage.sol/simplestorage.sol\":1008:1022  favoriteNumber */\n      dup1\n      sload\n        /* \"simplestorage.sol/simplestorage.sol\":1001:1022  return favoriteNumber */\n      swap1\n      pop\n        /* \"simplestorage.sol/simplestorage.sol\":932:1029  function getFavoriteNumber() public view returns (uint256) {... */\n      swap1\n      jump\t// out\n        /* \"simplestorage.sol/simplestorage.sol\":2495:2592  function addFavoriteNumber(uint256 _number) public {... */\n    tag_60:\n        /* \"simplestorage.sol/simplestorage.sol\":2556:2571  favoriteNumbers */\n      0x01\n        /* \"simplestorage.sol/simplestorage.sol\":2577:2584  _number */\n      dup2\n        /* \"simplestorage.sol/simplestorage.sol\":2556:2585  favoriteNumbers.push(_number) */\n      swap1\n      dup1\n      0x01\n      dup2\n      sload\n      add\n      dup1\n      dup3\n      sstore\n      dup1\n      swap2\n      pop\n      pop\n      0x01\n      swap1\n      sub\n      swap1\n      0x00\n      mstore\n      keccak256(0x00, 0x20)\n      add\n      0x00\n      swap1\n      swap2\n      swap1\n      swap2\n      swap1\n      swap2\n      pop\n      sstore\n        /* \"simplestorage.sol/simplestorage.sol\":2495:2592  function addFavoriteNumber(uint256 _number) public {... */\n      pop\n      jump\t// out\n        /* \"simplestorage.sol/simplestorage.sol\":824:926  function storeNumber(uint256 _favoriteNumber) public {... */\n    tag_63:\n        /* \"simplestorage.sol/simplestorage.sol\":904:919  _favoriteNumber */\n      dup1\n        /* \"simplestorage.sol/simplestorage.sol\":887:901  favoriteNumber */\n      0x00\n        /* \"simplestorage.sol/simplestorage.sol\":887:919  favoriteNumber = _favoriteNumber */\n      dup2\n      swap1\n      sstore\n      pop\n        /* \"simplestorage.sol/simplestorage.sol\":824:926  function storeNumber(uint256 _favoriteNumber) public {... */\n      pop\n      jump\t// out\n        /* \"simplestorage.sol/simplestorage.sol\":2869:2953  function deactivateContract() public {... */\n    tag_65:\n        /* \"simplestorage.sol/simplestorage.sol\":2924:2946  ContractState.Inactive */\n      0x01\n        /* \"simplestorage.sol/simplestorage.sol\":2916:2921  state */\n      0x03\n      0x00\n        /* \"simplestorage.sol/simplestorage.sol\":2916:2946  state = ContractState.Inactive */\n      0x0100\n      exp\n      dup2\n      sload\n      dup2\n      0xff\n      mul\n      not\n      and\n      swap1\n      dup4\n      0x01\n      dup2\n      gt\n      iszero\n      tag_119\n      jumpi\n      tag_120\n      tag_77\n      jump\t// in\n    tag_120:\n    tag_119:\n      mul\n      or\n      swap1\n      sstore\n      pop\n        /* \"simplestorage.sol/simplestorage.sol\":2869:2953  function deactivateContract() public {... */\n      jump\t// out\n        /* \"simplestorage.sol/simplestorage.sol\":737:763  ContractState public state */\n    tag_67:\n      0x03\n      0x00\n      swap1\n      sload\n      swap1\n      0x0100\n      exp\n      swap1\n      div\n      0xff\n      and\n      dup2\n      jump\t// out\n        /* \"simplestorage.sol/simplestorage.sol\":1035:1239  function isGreaterThan(uint256 _compareValue) public view returns (bool) {... */\n    tag_72:\n        /* \"simplestorage.sol/simplestorage.sol\":1102:1106  bool */\n      0x00\n        /* \"simplestorage.sol/simplestorage.sol\":1139:1152  _compareValue */\n      dup2\n        /* \"simplestorage.sol/simplestorage.sol\":1122:1136  favoriteNumber */\n      sload(0x00)\n        /* \"simplestorage.sol/simplestorage.sol\":1122:1152  favoriteNumber > _compareValue */\n      gt\n        /* \"simplestorage.sol/simplestorage.sol\":1118:1233  if (favoriteNumber > _compareValue) {... */\n      iszero\n      tag_122\n      jumpi\n        /* \"simplestorage.sol/simplestorage.sol\":1175:1179  true */\n      0x01\n        /* \"simplestorage.sol/simplestorage.sol\":1168:1179  return true */\n      swap1\n      pop\n      jump(tag_121)\n        /* \"simplestorage.sol/simplestorage.sol\":1118:1233  if (favoriteNumber > _compareValue) {... */\n    tag_122:\n        /* \"simplestorage.sol/simplestorage.sol\":1217:1222  false */\n      0x00\n        /* \"simplestorage.sol/simplestorage.sol\":1210:1222  return false */\n      swap1\n      pop\n        /* \"simplestorage.sol/simplestorage.sol\":1035:1239  function isGreaterThan(uint256 _compareValue) public view returns (bool) {... */\n    tag_121:\n      swap2\n      swap1\n      pop\n      jump\t// out\n        /* \"simplestorage.sol/simplestorage.sol\":1684:1875  function internalFunction() internal pure returns (string memory) {... */\n    tag_102:\n        /* \"simplestorage.sol/simplestorage.sol\":1735:1748  string memory */\n      0x60\n        /* \"simplestorage.sol/simplestorage.sol\":1760:1797  return \"This is an internal function\" */\n      mload(0x40)\n      dup1\n      0x40\n      add\n      0x40\n      mstore\n      dup1\n      0x1c\n      dup2\n      mstore\n      0x20\n      add\n      0x5468697320697320616e20696e7465726e616c2066756e6374696f6e00000000\n      dup2\n      mstore\n      pop\n      swap1\n      pop\n        /* \"simplestorage.sol/simplestorage.sol\":1684:1875  function internalFunction() internal pure returns (string memory) {... */\n      swap1\n      jump\t// out\n        /* \"#utility.yul\":7:97   */\n    tag_125:\n        /* \"#utility.yul\":41:48   */\n      0x00\n        /* \"#utility.yul\":84:89   */\n      dup2\n        /* \"#utility.yul\":77:90   */\n      iszero\n        /* \"#utility.yul\":70:91   */\n      iszero\n        /* \"#utility.yul\":59:91   */\n      swap1\n      pop\n        /* \"#utility.yul\":7:97   */\n      swap2\n      swap1\n      pop\n      jump\t// out\n        /* \"#utility.yul\":103:212   */\n    tag_126:\n        /* \"#utility.yul\":184:205   */\n      tag_174\n        /* \"#utility.yul\":199:204   */\n      dup2\n        /* \"#utility.yul\":184:205   */\n      tag_125\n      jump\t// in\n    tag_174:\n        /* \"#utility.yul\":179:182   */\n      dup3\n        /* \"#utility.yul\":172:206   */\n      mstore\n        /* \"#utility.yul\":103:212   */\n      pop\n      pop\n      jump\t// out\n        /* \"#utility.yul\":218:428   */\n    tag_24:\n        /* \"#utility.yul\":305:309   */\n      0x00\n        /* \"#utility.yul\":343:345   */\n      0x20\n        /* \"#utility.yul\":332:341   */\n      dup3\n        /* \"#utility.yul\":328:346   */\n      add\n        /* \"#utility.yul\":320:346   */\n      swap1\n      pop\n        /* \"#utility.yul\":356:421   */\n      tag_176\n        /* \"#utility.yul\":418:419   */\n      0x00\n        /* \"#utility.yul\":407:416   */\n      dup4\n        /* \"#utility.yul\":403:420   */\n      add\n        /* \"#utility.yul\":394:400   */\n      dup5\n        /* \"#utility.yul\":356:421   */\n      tag_126\n      jump\t// in\n    tag_176:\n        /* \"#utility.yul\":218:428   */\n      swap3\n      swap2\n      pop\n      pop\n      jump\t// out\n        /* \"#utility.yul\":434:509   */\n    tag_127:\n        /* \"#utility.yul\":467:473   */\n      0x00\n        /* \"#utility.yul\":500:502   */\n      0x40\n        /* \"#utility.yul\":494:503   */\n      mload\n        /* \"#utility.yul\":484:503   */\n      swap1\n      pop\n        /* \"#utility.yul\":434:509   */\n      swap1\n      jump\t// out\n        /* \"#utility.yul\":515:632   */\n    tag_128:\n        /* \"#utility.yul\":624:625   */\n      0x00\n        /* \"#utility.yul\":621:622   */\n      dup1\n        /* \"#utility.yul\":614:626   */\n      revert\n        /* \"#utility.yul\":638:755   */\n    tag_129:\n        /* \"#utility.yul\":747:748   */\n      0x00\n        /* \"#utility.yul\":744:745   */\n      dup1\n        /* \"#utility.yul\":737:749   */\n      revert\n        /* \"#utility.yul\":761:838   */\n    tag_130:\n        /* \"#utility.yul\":798:805   */\n      0x00\n        /* \"#utility.yul\":827:832   */\n      dup2\n        /* \"#utility.yul\":816:832   */\n      swap1\n      pop\n        /* \"#utility.yul\":761:838   */\n      swap2\n      swap1\n      pop\n      jump\t// out\n        /* \"#utility.yul\":844:966   */\n    tag_131:\n        /* \"#utility.yul\":917:941   */\n      tag_182\n        /* \"#utility.yul\":935:940   */\n      dup2\n        /* \"#utility.yul\":917:941   */\n      tag_130\n      jump\t// in\n    tag_182:\n        /* \"#utility.yul\":910:915   */\n      dup2\n        /* \"#utility.yul\":907:942   */\n      eq\n        /* \"#utility.yul\":897:960   */\n      tag_183\n      jumpi\n        /* \"#utility.yul\":956:957   */\n      0x00\n        /* \"#utility.yul\":953:954   */\n      dup1\n        /* \"#utility.yul\":946:958   */\n      revert\n        /* \"#utility.yul\":897:960   */\n    tag_183:\n        /* \"#utility.yul\":844:966   */\n      pop\n      jump\t// out\n        /* \"#utility.yul\":972:1111   */\n    tag_132:\n        /* \"#utility.yul\":1018:1023   */\n      0x00\n        /* \"#utility.yul\":1056:1062   */\n      dup2\n        /* \"#utility.yul\":1043:1063   */\n      calldataload\n        /* \"#utility.yul\":1034:1063   */\n      swap1\n      pop\n        /* \"#utility.yul\":1072:1105   */\n      tag_185\n        /* \"#utility.yul\":1099:1104   */\n      dup2\n        /* \"#utility.yul\":1072:1105   */\n      tag_131\n      jump\t// in\n    tag_185:\n        /* \"#utility.yul\":972:1111   */\n      swap3\n      swap2\n      pop\n      pop\n      jump\t// out\n        /* \"#utility.yul\":1117:1446   */\n    tag_27:\n        /* \"#utility.yul\":1176:1182   */\n      0x00\n        /* \"#utility.yul\":1225:1227   */\n      0x20\n        /* \"#utility.yul\":1213:1222   */\n      dup3\n        /* \"#utility.yul\":1204:1211   */\n      dup5\n        /* \"#utility.yul\":1200:1223   */\n      sub\n        /* \"#utility.yul\":1196:1228   */\n      slt\n        /* \"#utility.yul\":1193:1312   */\n      iszero\n      tag_187\n      jumpi\n        /* \"#utility.yul\":1231:1310   */\n      tag_188\n      tag_128\n      jump\t// in\n    tag_188:\n        /* \"#utility.yul\":1193:1312   */\n    tag_187:\n        /* \"#utility.yul\":1351:1352   */\n      0x00\n        /* \"#utility.yul\":1376:1429   */\n      tag_189\n        /* \"#utility.yul\":1421:1428   */\n      dup5\n        /* \"#utility.yul\":1412:1418   */\n      dup3\n        /* \"#utility.yul\":1401:1410   */\n      dup6\n        /* \"#utility.yul\":1397:1419   */\n      add\n        /* \"#utility.yul\":1376:1429   */\n      tag_132\n      jump\t// in\n    tag_189:\n        /* \"#utility.yul\":1366:1429   */\n      swap2\n      pop\n        /* \"#utility.yul\":1322:1439   */\n      pop\n        /* \"#utility.yul\":1117:1446   */\n      swap3\n      swap2\n      pop\n      pop\n      jump\t// out\n        /* \"#utility.yul\":1452:1570   */\n    tag_133:\n        /* \"#utility.yul\":1539:1563   */\n      tag_191\n        /* \"#utility.yul\":1557:1562   */\n      dup2\n        /* \"#utility.yul\":1539:1563   */\n      tag_130\n      jump\t// in\n    tag_191:\n        /* \"#utility.yul\":1534:1537   */\n      dup3\n        /* \"#utility.yul\":1527:1564   */\n      mstore\n        /* \"#utility.yul\":1452:1570   */\n      pop\n      pop\n      jump\t// out\n        /* \"#utility.yul\":1576:1798   */\n    tag_30:\n        /* \"#utility.yul\":1669:1673   */\n      0x00\n        /* \"#utility.yul\":1707:1709   */\n      0x20\n        /* \"#utility.yul\":1696:1705   */\n      dup3\n        /* \"#utility.yul\":1692:1710   */\n      add\n        /* \"#utility.yul\":1684:1710   */\n      swap1\n      pop\n        /* \"#utility.yul\":1720:1791   */\n      tag_193\n        /* \"#utility.yul\":1788:1789   */\n      0x00\n        /* \"#utility.yul\":1777:1786   */\n      dup4\n        /* \"#utility.yul\":1773:1790   */\n      add\n        /* \"#utility.yul\":1764:1770   */\n      dup5\n        /* \"#utility.yul\":1720:1791   */\n      tag_133\n      jump\t// in\n    tag_193:\n        /* \"#utility.yul\":1576:1798   */\n      swap3\n      swap2\n      pop\n      pop\n      jump\t// out\n        /* \"#utility.yul\":1804:1903   */\n    tag_134:\n        /* \"#utility.yul\":1856:1862   */\n      0x00\n        /* \"#utility.yul\":1890:1895   */\n      dup2\n        /* \"#utility.yul\":1884:1896   */\n      mload\n        /* \"#utility.yul\":1874:1896   */\n      swap1\n      pop\n        /* \"#utility.yul\":1804:1903   */\n      swap2\n      swap1\n      pop\n      jump\t// out\n        /* \"#utility.yul\":1909:2078   */\n    tag_135:\n        /* \"#utility.yul\":1993:2004   */\n      0x00\n        /* \"#utility.yul\":2027:2033   */\n      dup3\n        /* \"#utility.yul\":2022:2025   */\n      dup3\n        /* \"#utility.yul\":2015:2034   */\n      mstore\n        /* \"#utility.yul\":2067:2071   */\n      0x20\n        /* \"#utility.yul\":2062:2065   */\n      dup3\n        /* \"#utility.yul\":2058:2072   */\n      add\n        /* \"#utility.yul\":2043:2072   */\n      swap1\n      pop\n        /* \"#utility.yul\":1909:2078   */\n      swap3\n      swap2\n      pop\n      pop\n      jump\t// out\n        /* \"#utility.yul\":2084:2223   */\n    tag_136:\n        /* \"#utility.yul\":2173:2179   */\n      dup3\n        /* \"#utility.yul\":2168:2171   */\n      dup2\n        /* \"#utility.yul\":2163:2166   */\n      dup4\n        /* \"#utility.yul\":2157:2180   */\n      mcopy\n        /* \"#utility.yul\":2214:2215   */\n      0x00\n        /* \"#utility.yul\":2205:2211   */\n      dup4\n        /* \"#utility.yul\":2200:2203   */\n      dup4\n        /* \"#utility.yul\":2196:2212   */\n      add\n        /* \"#utility.yul\":2189:2216   */\n      mstore\n        /* \"#utility.yul\":2084:2223   */\n      pop\n      pop\n      pop\n      jump\t// out\n        /* \"#utility.yul\":2229:2331   */\n    tag_137:\n        /* \"#utility.yul\":2270:2276   */\n      0x00\n        /* \"#utility.yul\":2321:2323   */\n      0x1f\n        /* \"#utility.yul\":2317:2324   */\n      not\n        /* \"#utility.yul\":2312:2314   */\n      0x1f\n        /* \"#utility.yul\":2305:2310   */\n      dup4\n        /* \"#utility.yul\":2301:2315   */\n      add\n        /* \"#utility.yul\":2297:2325   */\n      and\n        /* \"#utility.yul\":2287:2325   */\n      swap1\n      pop\n        /* \"#utility.yul\":2229:2331   */\n      swap2\n      swap1\n      pop\n      jump\t// out\n        /* \"#utility.yul\":2337:2714   */\n    tag_138:\n        /* \"#utility.yul\":2425:2428   */\n      0x00\n        /* \"#utility.yul\":2453:2492   */\n      tag_199\n        /* \"#utility.yul\":2486:2491   */\n      dup3\n        /* \"#utility.yul\":2453:2492   */\n      tag_134\n      jump\t// in\n    tag_199:\n        /* \"#utility.yul\":2508:2579   */\n      tag_200\n        /* \"#utility.yul\":2572:2578   */\n      dup2\n        /* \"#utility.yul\":2567:2570   */\n      dup6\n        /* \"#utility.yul\":2508:2579   */\n      tag_135\n      jump\t// in\n    tag_200:\n        /* \"#utility.yul\":2501:2579   */\n      swap4\n      pop\n        /* \"#utility.yul\":2588:2653   */\n      tag_201\n        /* \"#utility.yul\":2646:2652   */\n      dup2\n        /* \"#utility.yul\":2641:2644   */\n      dup6\n        /* \"#utility.yul\":2634:2638   */\n      0x20\n        /* \"#utility.yul\":2627:2632   */\n      dup7\n        /* \"#utility.yul\":2623:2639   */\n      add\n        /* \"#utility.yul\":2588:2653   */\n      tag_136\n      jump\t// in\n    tag_201:\n        /* \"#utility.yul\":2678:2707   */\n      tag_202\n        /* \"#utility.yul\":2700:2706   */\n      dup2\n        /* \"#utility.yul\":2678:2707   */\n      tag_137\n      jump\t// in\n    tag_202:\n        /* \"#utility.yul\":2673:2676   */\n      dup5\n        /* \"#utility.yul\":2669:2708   */\n      add\n        /* \"#utility.yul\":2662:2708   */\n      swap2\n      pop\n        /* \"#utility.yul\":2429:2714   */\n      pop\n        /* \"#utility.yul\":2337:2714   */\n      swap3\n      swap2\n      pop\n      pop\n      jump\t// out\n        /* \"#utility.yul\":2720:3033   */\n    tag_34:\n        /* \"#utility.yul\":2833:2837   */\n      0x00\n        /* \"#utility.yul\":2871:2873   */\n      0x20\n        /* \"#utility.yul\":2860:2869   */\n      dup3\n        /* \"#utility.yul\":2856:2874   */\n      add\n        /* \"#utility.yul\":2848:2874   */\n      swap1\n      pop\n        /* \"#utility.yul\":2920:2929   */\n      dup2\n        /* \"#utility.yul\":2914:2918   */\n      dup2\n        /* \"#utility.yul\":2910:2930   */\n      sub\n        /* \"#utility.yul\":2906:2907   */\n      0x00\n        /* \"#utility.yul\":2895:2904   */\n      dup4\n        /* \"#utility.yul\":2891:2908   */\n      add\n        /* \"#utility.yul\":2884:2931   */\n      mstore\n        /* \"#utility.yul\":2948:3026   */\n      tag_204\n        /* \"#utility.yul\":3021:3025   */\n      dup2\n        /* \"#utility.yul\":3012:3018   */\n      dup5\n        /* \"#utility.yul\":2948:3026   */\n      tag_138\n      jump\t// in\n    tag_204:\n        /* \"#utility.yul\":2940:3026   */\n      swap1\n      pop\n        /* \"#utility.yul\":2720:3033   */\n      swap3\n      swap2\n      pop\n      pop\n      jump\t// out\n        /* \"#utility.yul\":3039:3156   */\n    tag_139:\n        /* \"#utility.yul\":3148:3149   */\n      0x00\n        /* \"#utility.yul\":3145:3146   */\n      dup1\n        /* \"#utility.yul\":3138:3150   */\n      revert\n        /* \"#utility.yul\":3162:3279   */\n    tag_140:\n        /* \"#utility.yul\":3271:3272   */\n      0x00\n        /* \"#utility.yul\":3268:3269   */\n      dup1\n        /* \"#utility.yul\":3261:3273   */\n      revert\n        /* \"#utility.yul\":3285:3465   */\n    tag_141:\n        /* \"#utility.yul\":3333:3410   */\n      0x4e487b7100000000000000000000000000000000000000000000000000000000\n        /* \"#utility.yul\":3330:3331   */\n      0x00\n        /* \"#utility.yul\":3323:3411   */\n      mstore\n        /* \"#utility.yul\":3430:3434   */\n      0x41\n        /* \"#utility.yul\":3427:3428   */\n      0x04\n        /* \"#utility.yul\":3420:3435   */\n      mstore\n        /* \"#utility.yul\":3454:3458   */\n      0x24\n        /* \"#utility.yul\":3451:3452   */\n      0x00\n        /* \"#utility.yul\":3444:3459   */\n      revert\n        /* \"#utility.yul\":3471:3752   */\n    tag_142:\n        /* \"#utility.yul\":3554:3581   */\n      tag_209\n        /* \"#utility.yul\":3576:3580   */\n      dup3\n        /* \"#utility.yul\":3554:3581   */\n      tag_137\n      jump\t// in\n    tag_209:\n        /* \"#utility.yul\":3546:3552   */\n      dup2\n        /* \"#utility.yul\":3542:3582   */\n      add\n        /* \"#utility.yul\":3684:3690   */\n      dup2\n        /* \"#utility.yul\":3672:3682   */\n      dup2\n        /* \"#utility.yul\":3669:3691   */\n      lt\n        /* \"#utility.yul\":3648:3666   */\n      0xffffffffffffffff\n        /* \"#utility.yul\":3636:3646   */\n      dup3\n        /* \"#utility.yul\":3633:3667   */\n      gt\n        /* \"#utility.yul\":3630:3692   */\n      or\n        /* \"#utility.yul\":3627:3715   */\n      iszero\n      tag_210\n      jumpi\n        /* \"#utility.yul\":3695:3713   */\n      tag_211\n      tag_141\n      jump\t// in\n    tag_211:\n        /* \"#utility.yul\":3627:3715   */\n    tag_210:\n        /* \"#utility.yul\":3735:3745   */\n      dup1\n        /* \"#utility.yul\":3731:3733   */\n      0x40\n        /* \"#utility.yul\":3724:3746   */\n      mstore\n        /* \"#utility.yul\":3514:3752   */\n      pop\n        /* \"#utility.yul\":3471:3752   */\n      pop\n      pop\n      jump\t// out\n        /* \"#utility.yul\":3758:3887   */\n    tag_143:\n        /* \"#utility.yul\":3792:3798   */\n      0x00\n        /* \"#utility.yul\":3819:3839   */\n      tag_213\n      tag_127\n      jump\t// in\n    tag_213:\n        /* \"#utility.yul\":3809:3839   */\n      swap1\n      pop\n        /* \"#utility.yul\":3848:3881   */\n      tag_214\n        /* \"#utility.yul\":3876:3880   */\n      dup3\n        /* \"#utility.yul\":3868:3874   */\n      dup3\n        /* \"#utility.yul\":3848:3881   */\n      tag_142\n      jump\t// in\n    tag_214:\n        /* \"#utility.yul\":3758:3887   */\n      swap2\n      swap1\n      pop\n      jump\t// out\n        /* \"#utility.yul\":3893:4201   */\n    tag_144:\n        /* \"#utility.yul\":3955:3959   */\n      0x00\n        /* \"#utility.yul\":4045:4063   */\n      0xffffffffffffffff\n        /* \"#utility.yul\":4037:4043   */\n      dup3\n        /* \"#utility.yul\":4034:4064   */\n      gt\n        /* \"#utility.yul\":4031:4087   */\n      iszero\n      tag_216\n      jumpi\n        /* \"#utility.yul\":4067:4085   */\n      tag_217\n      tag_141\n      jump\t// in\n    tag_217:\n        /* \"#utility.yul\":4031:4087   */\n    tag_216:\n        /* \"#utility.yul\":4105:4134   */\n      tag_218\n        /* \"#utility.yul\":4127:4133   */\n      dup3\n        /* \"#utility.yul\":4105:4134   */\n      tag_137\n      jump\t// in\n    tag_218:\n        /* \"#utility.yul\":4097:4134   */\n      swap1\n      pop\n        /* \"#utility.yul\":4189:4193   */\n      0x20\n        /* \"#utility.yul\":4183:4187   */\n      dup2\n        /* \"#utility.yul\":4179:4194   */\n      add\n        /* \"#utility.yul\":4171:4194   */\n      swap1\n      pop\n        /* \"#utility.yul\":3893:4201   */\n      swap2\n      swap1\n      pop\n      jump\t// out\n        /* \"#utility.yul\":4207:4355   */\n    tag_145:\n        /* \"#utility.yul\":4305:4311   */\n      dup3\n        /* \"#utility.yul\":4300:4303   */\n      dup2\n        /* \"#utility.yul\":4295:4298   */\n      dup4\n        /* \"#utility.yul\":4282:4312   */\n      calldatacopy\n        /* \"#utility.yul\":4346:4347   */\n      0x00\n        /* \"#utility.yul\":4337:4343   */\n      dup4\n        /* \"#utility.yul\":4332:4335   */\n      dup4\n        /* \"#utility.yul\":4328:4344   */\n      add\n        /* \"#utility.yul\":4321:4348   */\n      mstore\n        /* \"#utility.yul\":4207:4355   */\n      pop\n      pop\n      pop\n      jump\t// out\n        /* \"#utility.yul\":4361:4786   */\n    tag_146:\n        /* \"#utility.yul\":4439:4444   */\n      0x00\n        /* \"#utility.yul\":4464:4530   */\n      tag_221\n        /* \"#utility.yul\":4480:4529   */\n      tag_222\n        /* \"#utility.yul\":4522:4528   */\n      dup5\n        /* \"#utility.yul\":4480:4529   */\n      tag_144\n      jump\t// in\n    tag_222:\n        /* \"#utility.yul\":4464:4530   */\n      tag_143\n      jump\t// in\n    tag_221:\n        /* \"#utility.yul\":4455:4530   */\n      swap1\n      pop\n        /* \"#utility.yul\":4553:4559   */\n      dup3\n        /* \"#utility.yul\":4546:4551   */\n      dup2\n        /* \"#utility.yul\":4539:4560   */\n      mstore\n        /* \"#utility.yul\":4591:4595   */\n      0x20\n        /* \"#utility.yul\":4584:4589   */\n      dup2\n        /* \"#utility.yul\":4580:4596   */\n      add\n        /* \"#utility.yul\":4629:4632   */\n      dup5\n        /* \"#utility.yul\":4620:4626   */\n      dup5\n        /* \"#utility.yul\":4615:4618   */\n      dup5\n        /* \"#utility.yul\":4611:4627   */\n      add\n        /* \"#utility.yul\":4608:4633   */\n      gt\n        /* \"#utility.yul\":4605:4717   */\n      iszero\n      tag_223\n      jumpi\n        /* \"#utility.yul\":4636:4715   */\n      tag_224\n      tag_140\n      jump\t// in\n    tag_224:\n        /* \"#utility.yul\":4605:4717   */\n    tag_223:\n        /* \"#utility.yul\":4726:4780   */\n      tag_225\n        /* \"#utility.yul\":4773:4779   */\n      dup5\n        /* \"#utility.yul\":4768:4771   */\n      dup3\n        /* \"#utility.yul\":4763:4766   */\n      dup6\n        /* \"#utility.yul\":4726:4780   */\n      tag_145\n      jump\t// in\n    tag_225:\n        /* \"#utility.yul\":4445:4786   */\n      pop\n        /* \"#utility.yul\":4361:4786   */\n      swap4\n      swap3\n      pop\n      pop\n      pop\n      jump\t// out\n        /* \"#utility.yul\":4806:5146   */\n    tag_147:\n        /* \"#utility.yul\":4862:4867   */\n      0x00\n        /* \"#utility.yul\":4911:4914   */\n      dup3\n        /* \"#utility.yul\":4904:4908   */\n      0x1f\n        /* \"#utility.yul\":4896:4902   */\n      dup4\n        /* \"#utility.yul\":4892:4909   */\n      add\n        /* \"#utility.yul\":4888:4915   */\n      slt\n        /* \"#utility.yul\":4878:5000   */\n      tag_227\n      jumpi\n        /* \"#utility.yul\":4919:4998   */\n      tag_228\n      tag_139\n      jump\t// in\n    tag_228:\n        /* \"#utility.yul\":4878:5000   */\n    tag_227:\n        /* \"#utility.yul\":5036:5042   */\n      dup2\n        /* \"#utility.yul\":5023:5043   */\n      calldataload\n        /* \"#utility.yul\":5061:5140   */\n      tag_229\n        /* \"#utility.yul\":5136:5139   */\n      dup5\n        /* \"#utility.yul\":5128:5134   */\n      dup3\n        /* \"#utility.yul\":5121:5125   */\n      0x20\n        /* \"#utility.yul\":5113:5119   */\n      dup7\n        /* \"#utility.yul\":5109:5126   */\n      add\n        /* \"#utility.yul\":5061:5140   */\n      tag_146\n      jump\t// in\n    tag_229:\n        /* \"#utility.yul\":5052:5140   */\n      swap2\n      pop\n        /* \"#utility.yul\":4868:5146   */\n      pop\n        /* \"#utility.yul\":4806:5146   */\n      swap3\n      swap2\n      pop\n      pop\n      jump\t// out\n        /* \"#utility.yul\":5152:5806   */\n    tag_43:\n        /* \"#utility.yul\":5230:5236   */\n      0x00\n        /* \"#utility.yul\":5238:5244   */\n      dup1\n        /* \"#utility.yul\":5287:5289   */\n      0x40\n        /* \"#utility.yul\":5275:5284   */\n      dup4\n        /* \"#utility.yul\":5266:5273   */\n      dup6\n        /* \"#utility.yul\":5262:5285   */\n      sub\n        /* \"#utility.yul\":5258:5290   */\n      slt\n        /* \"#utility.yul\":5255:5374   */\n      iszero\n      tag_231\n      jumpi\n        /* \"#utility.yul\":5293:5372   */\n      tag_232\n      tag_128\n      jump\t// in\n    tag_232:\n        /* \"#utility.yul\":5255:5374   */\n    tag_231:\n        /* \"#utility.yul\":5441:5442   */\n      0x00\n        /* \"#utility.yul\":5430:5439   */\n      dup4\n        /* \"#utility.yul\":5426:5443   */\n      add\n        /* \"#utility.yul\":5413:5444   */\n      calldataload\n        /* \"#utility.yul\":5471:5489   */\n      0xffffffffffffffff\n        /* \"#utility.yul\":5463:5469   */\n      dup2\n        /* \"#utility.yul\":5460:5490   */\n      gt\n        /* \"#utility.yul\":5457:5574   */\n      iszero\n      tag_233\n      jumpi\n        /* \"#utility.yul\":5493:5572   */\n      tag_234\n      tag_129\n      jump\t// in\n    tag_234:\n        /* \"#utility.yul\":5457:5574   */\n    tag_233:\n        /* \"#utility.yul\":5598:5661   */\n      tag_235\n        /* \"#utility.yul\":5653:5660   */\n      dup6\n        /* \"#utility.yul\":5644:5650   */\n      dup3\n        /* \"#utility.yul\":5633:5642   */\n      dup7\n        /* \"#utility.yul\":5629:5651   */\n      add\n        /* \"#utility.yul\":5598:5661   */\n      tag_147\n      jump\t// in\n    tag_235:\n        /* \"#utility.yul\":5588:5661   */\n      swap3\n      pop\n        /* \"#utility.yul\":5384:5671   */\n      pop\n        /* \"#utility.yul\":5710:5712   */\n      0x20\n        /* \"#utility.yul\":5736:5789   */\n      tag_236\n        /* \"#utility.yul\":5781:5788   */\n      dup6\n        /* \"#utility.yul\":5772:5778   */\n      dup3\n        /* \"#utility.yul\":5761:5770   */\n      dup7\n        /* \"#utility.yul\":5757:5779   */\n      add\n        /* \"#utility.yul\":5736:5789   */\n      tag_132\n      jump\t// in\n    tag_236:\n        /* \"#utility.yul\":5726:5789   */\n      swap2\n      pop\n        /* \"#utility.yul\":5681:5799   */\n      pop\n        /* \"#utility.yul\":5152:5806   */\n      swap3\n      pop\n      swap3\n      swap1\n      pop\n      jump\t// out\n        /* \"#utility.yul\":5812:6235   */\n    tag_54:\n        /* \"#utility.yul\":5953:5957   */\n      0x00\n        /* \"#utility.yul\":5991:5993   */\n      0x40\n        /* \"#utility.yul\":5980:5989   */\n      dup3\n        /* \"#utility.yul\":5976:5994   */\n      add\n        /* \"#utility.yul\":5968:5994   */\n      swap1\n      pop\n        /* \"#utility.yul\":6040:6049   */\n      dup2\n        /* \"#utility.yul\":6034:6038   */\n      dup2\n        /* \"#utility.yul\":6030:6050   */\n      sub\n        /* \"#utility.yul\":6026:6027   */\n      0x00\n        /* \"#utility.yul\":6015:6024   */\n      dup4\n        /* \"#utility.yul\":6011:6028   */\n      add\n        /* \"#utility.yul\":6004:6051   */\n      mstore\n        /* \"#utility.yul\":6068:6146   */\n      tag_238\n        /* \"#utility.yul\":6141:6145   */\n      dup2\n        /* \"#utility.yul\":6132:6138   */\n      dup6\n        /* \"#utility.yul\":6068:6146   */\n      tag_138\n      jump\t// in\n    tag_238:\n        /* \"#utility.yul\":6060:6146   */\n      swap1\n      pop\n        /* \"#utility.yul\":6156:6228   */\n      tag_239\n        /* \"#utility.yul\":6224:6226   */\n      0x20\n        /* \"#utility.yul\":6213:6222   */\n      dup4\n        /* \"#utility.yul\":6209:6227   */\n      add\n        /* \"#utility.yul\":6200:6206   */\n      dup5\n        /* \"#utility.yul\":6156:6228   */\n      tag_133\n      jump\t// in\n    tag_239:\n        /* \"#utility.yul\":5812:6235   */\n      swap4\n      swap3\n      pop\n      pop\n      pop\n      jump\t// out\n        /* \"#utility.yul\":6241:6421   */\n    tag_77:\n        /* \"#utility.yul\":6289:6366   */\n      0x4e487b7100000000000000000000000000000000000000000000000000000000\n        /* \"#utility.yul\":6286:6287   */\n      0x00\n        /* \"#utility.yul\":6279:6367   */\n      mstore\n        /* \"#utility.yul\":6386:6390   */\n      0x21\n        /* \"#utility.yul\":6383:6384   */\n      0x04\n        /* \"#utility.yul\":6376:6391   */\n      mstore\n        /* \"#utility.yul\":6410:6414   */\n      0x24\n        /* \"#utility.yul\":6407:6408   */\n      0x00\n        /* \"#utility.yul\":6400:6415   */\n      revert\n        /* \"#utility.yul\":6427:6548   */\n    tag_148:\n        /* \"#utility.yul\":6516:6517   */\n      0x02\n        /* \"#utility.yul\":6509:6514   */\n      dup2\n        /* \"#utility.yul\":6506:6518   */\n      lt\n        /* \"#utility.yul\":6496:6542   */\n      tag_242\n      jumpi\n        /* \"#utility.yul\":6522:6540   */\n      tag_243\n      tag_77\n      jump\t// in\n    tag_243:\n        /* \"#utility.yul\":6496:6542   */\n    tag_242:\n        /* \"#utility.yul\":6427:6548   */\n      pop\n      jump\t// out\n        /* \"#utility.yul\":6554:6697   */\n    tag_149:\n        /* \"#utility.yul\":6607:6614   */\n      0x00\n        /* \"#utility.yul\":6636:6641   */\n      dup2\n        /* \"#utility.yul\":6625:6641   */\n      swap1\n      pop\n        /* \"#utility.yul\":6642:6691   */\n      tag_245\n        /* \"#utility.yul\":6685:6690   */\n      dup3\n        /* \"#utility.yul\":6642:6691   */\n      tag_148\n      jump\t// in\n    tag_245:\n        /* \"#utility.yul\":6554:6697   */\n      swap2\n      swap1\n      pop\n      jump\t// out\n        /* \"#utility.yul\":6703:6846   */\n    tag_150:\n        /* \"#utility.yul\":6767:6776   */\n      0x00\n        /* \"#utility.yul\":6800:6840   */\n      tag_247\n        /* \"#utility.yul\":6834:6839   */\n      dup3\n        /* \"#utility.yul\":6800:6840   */\n      tag_149\n      jump\t// in\n    tag_247:\n        /* \"#utility.yul\":6787:6840   */\n      swap1\n      pop\n        /* \"#utility.yul\":6703:6846   */\n      swap2\n      swap1\n      pop\n      jump\t// out\n        /* \"#utility.yul\":6852:7011   */\n    tag_151:\n        /* \"#utility.yul\":6953:7004   */\n      tag_249\n        /* \"#utility.yul\":6998:7003   */\n      dup2\n        /* \"#utility.yul\":6953:7004   */\n      tag_150\n      jump\t// in\n    tag_249:\n        /* \"#utility.yul\":6948:6951   */\n      dup3\n        /* \"#utility.yul\":6941:7005   */\n      mstore\n        /* \"#utility.yul\":6852:7011   */\n      pop\n      pop\n      jump\t// out\n        /* \"#utility.yul\":7017:7267   */\n    tag_69:\n        /* \"#utility.yul\":7124:7128   */\n      0x00\n        /* \"#utility.yul\":7162:7164   */\n      0x20\n        /* \"#utility.yul\":7151:7160   */\n      dup3\n        /* \"#utility.yul\":7147:7165   */\n      add\n        /* \"#utility.yul\":7139:7165   */\n      swap1\n      pop\n        /* \"#utility.yul\":7175:7260   */\n      tag_251\n        /* \"#utility.yul\":7257:7258   */\n      0x00\n        /* \"#utility.yul\":7246:7255   */\n      dup4\n        /* \"#utility.yul\":7242:7259   */\n      add\n        /* \"#utility.yul\":7233:7239   */\n      dup5\n        /* \"#utility.yul\":7175:7260   */\n      tag_151\n      jump\t// in\n    tag_251:\n        /* \"#utility.yul\":7017:7267   */\n      swap3\n      swap2\n      pop\n      pop\n      jump\t// out\n        /* \"#utility.yul\":7273:7707   */\n    tag_152:\n        /* \"#utility.yul\":7362:7367   */\n      0x00\n        /* \"#utility.yul\":7387:7453   */\n      tag_253\n        /* \"#utility.yul\":7403:7452   */\n      tag_254\n        /* \"#utility.yul\":7445:7451   */\n      dup5\n        /* \"#utility.yul\":7403:7452   */\n      tag_144\n      jump\t// in\n    tag_254:\n        /* \"#utility.yul\":7387:7453   */\n      tag_143\n      jump\t// in\n    tag_253:\n        /* \"#utility.yul\":7378:7453   */\n      swap1\n      pop\n        /* \"#utility.yul\":7476:7482   */\n      dup3\n        /* \"#utility.yul\":7469:7474   */\n      dup2\n        /* \"#utility.yul\":7462:7483   */\n      mstore\n        /* \"#utility.yul\":7514:7518   */\n      0x20\n        /* \"#utility.yul\":7507:7512   */\n      dup2\n        /* \"#utility.yul\":7503:7519   */\n      add\n        /* \"#utility.yul\":7552:7555   */\n      dup5\n        /* \"#utility.yul\":7543:7549   */\n      dup5\n        /* \"#utility.yul\":7538:7541   */\n      dup5\n        /* \"#utility.yul\":7534:7550   */\n      add\n        /* \"#utility.yul\":7531:7556   */\n      gt\n        /* \"#utility.yul\":7528:7640   */\n      iszero\n      tag_255\n      jumpi\n        /* \"#utility.yul\":7559:7638   */\n      tag_256\n      tag_140\n      jump\t// in\n    tag_256:\n        /* \"#utility.yul\":7528:7640   */\n    tag_255:\n        /* \"#utility.yul\":7649:7701   */\n      tag_257\n        /* \"#utility.yul\":7694:7700   */\n      dup5\n        /* \"#utility.yul\":7689:7692   */\n      dup3\n        /* \"#utility.yul\":7684:7687   */\n      dup6\n        /* \"#utility.yul\":7649:7701   */\n      tag_136\n      jump\t// in\n    tag_257:\n        /* \"#utility.yul\":7368:7707   */\n      pop\n        /* \"#utility.yul\":7273:7707   */\n      swap4\n      swap3\n      pop\n      pop\n      pop\n      jump\t// out\n        /* \"#utility.yul\":7727:8082   */\n    tag_153:\n        /* \"#utility.yul\":7794:7799   */\n      0x00\n        /* \"#utility.yul\":7843:7846   */\n      dup3\n        /* \"#utility.yul\":7836:7840   */\n      0x1f\n        /* \"#utility.yul\":7828:7834   */\n      dup4\n        /* \"#utility.yul\":7824:7841   */\n      add\n        /* \"#utility.yul\":7820:7847   */\n      slt\n        /* \"#utility.yul\":7810:7932   */\n      tag_259\n      jumpi\n        /* \"#utility.yul\":7851:7930   */\n      tag_260\n      tag_139\n      jump\t// in\n    tag_260:\n        /* \"#utility.yul\":7810:7932   */\n    tag_259:\n        /* \"#utility.yul\":7961:7967   */\n      dup2\n        /* \"#utility.yul\":7955:7968   */\n      mload\n        /* \"#utility.yul\":7986:8076   */\n      tag_261\n        /* \"#utility.yul\":8072:8075   */\n      dup5\n        /* \"#utility.yul\":8064:8070   */\n      dup3\n        /* \"#utility.yul\":8057:8061   */\n      0x20\n        /* \"#utility.yul\":8049:8055   */\n      dup7\n        /* \"#utility.yul\":8045:8062   */\n      add\n        /* \"#utility.yul\":7986:8076   */\n      tag_152\n      jump\t// in\n    tag_261:\n        /* \"#utility.yul\":7977:8076   */\n      swap2\n      pop\n        /* \"#utility.yul\":7800:8082   */\n      pop\n        /* \"#utility.yul\":7727:8082   */\n      swap3\n      swap2\n      pop\n      pop\n      jump\t// out\n        /* \"#utility.yul\":8088:8612   */\n    tag_86:\n        /* \"#utility.yul\":8168:8174   */\n      0x00\n        /* \"#utility.yul\":8217:8219   */\n      0x20\n        /* \"#utility.yul\":8205:8214   */\n      dup3\n        /* \"#utility.yul\":8196:8203   */\n      dup5\n        /* \"#utility.yul\":8192:8215   */\n      sub\n        /* \"#utility.yul\":8188:8220   */\n      slt\n        /* \"#utility.yul\":8185:8304   */\n      iszero\n      tag_263\n      jumpi\n        /* \"#utility.yul\":8223:8302   */\n      tag_264\n      tag_128\n      jump\t// in\n    tag_264:\n        /* \"#utility.yul\":8185:8304   */\n    tag_263:\n        /* \"#utility.yul\":8364:8365   */\n      0x00\n        /* \"#utility.yul\":8353:8362   */\n      dup3\n        /* \"#utility.yul\":8349:8366   */\n      add\n        /* \"#utility.yul\":8343:8367   */\n      mload\n        /* \"#utility.yul\":8394:8412   */\n      0xffffffffffffffff\n        /* \"#utility.yul\":8386:8392   */\n      dup2\n        /* \"#utility.yul\":8383:8413   */\n      gt\n        /* \"#utility.yul\":8380:8497   */\n      iszero\n      tag_265\n      jumpi\n        /* \"#utility.yul\":8416:8495   */\n      tag_266\n      tag_129\n      jump\t// in\n    tag_266:\n        /* \"#utility.yul\":8380:8497   */\n    tag_265:\n        /* \"#utility.yul\":8521:8595   */\n      tag_267\n        /* \"#utility.yul\":8587:8594   */\n      dup5\n        /* \"#utility.yul\":8578:8584   */\n      dup3\n        /* \"#utility.yul\":8567:8576   */\n      dup6\n        /* \"#utility.yul\":8563:8585   */\n      add\n        /* \"#utility.yul\":8521:8595   */\n      tag_153\n      jump\t// in\n    tag_267:\n        /* \"#utility.yul\":8511:8595   */\n      swap2\n      pop\n        /* \"#utility.yul\":8314:8605   */\n      pop\n        /* \"#utility.yul\":8088:8612   */\n      swap3\n      swap2\n      pop\n      pop\n      jump\t// out\n        /* \"#utility.yul\":8618:8798   */\n    tag_154:\n        /* \"#utility.yul\":8666:8743   */\n      0x4e487b7100000000000000000000000000000000000000000000000000000000\n        /* \"#utility.yul\":8663:8664   */\n      0x00\n        /* \"#utility.yul\":8656:8744   */\n      mstore\n        /* \"#utility.yul\":8763:8767   */\n      0x11\n        /* \"#utility.yul\":8760:8761   */\n      0x04\n        /* \"#utility.yul\":8753:8768   */\n      mstore\n        /* \"#utility.yul\":8787:8791   */\n      0x24\n        /* \"#utility.yul\":8784:8785   */\n      0x00\n        /* \"#utility.yul\":8777:8792   */\n      revert\n        /* \"#utility.yul\":8804:8995   */\n    tag_93:\n        /* \"#utility.yul\":8844:8847   */\n      0x00\n        /* \"#utility.yul\":8863:8883   */\n      tag_270\n        /* \"#utility.yul\":8881:8882   */\n      dup3\n        /* \"#utility.yul\":8863:8883   */\n      tag_130\n      jump\t// in\n    tag_270:\n        /* \"#utility.yul\":8858:8883   */\n      swap2\n      pop\n        /* \"#utility.yul\":8897:8917   */\n      tag_271\n        /* \"#utility.yul\":8915:8916   */\n      dup4\n        /* \"#utility.yul\":8897:8917   */\n      tag_130\n      jump\t// in\n    tag_271:\n        /* \"#utility.yul\":8892:8917   */\n      swap3\n      pop\n        /* \"#utility.yul\":8940:8941   */\n      dup3\n        /* \"#utility.yul\":8937:8938   */\n      dup3\n        /* \"#utility.yul\":8933:8942   */\n      add\n        /* \"#utility.yul\":8926:8942   */\n      swap1\n      pop\n        /* \"#utility.yul\":8961:8964   */\n      dup1\n        /* \"#utility.yul\":8958:8959   */\n      dup3\n        /* \"#utility.yul\":8955:8965   */\n      gt\n        /* \"#utility.yul\":8952:8988   */\n      iszero\n      tag_272\n      jumpi\n        /* \"#utility.yul\":8968:8986   */\n      tag_273\n      tag_154\n      jump\t// in\n    tag_273:\n        /* \"#utility.yul\":8952:8988   */\n    tag_272:\n        /* \"#utility.yul\":8804:8995   */\n      swap3\n      swap2\n      pop\n      pop\n      jump\t// out\n        /* \"#utility.yul\":9001:9234   */\n    tag_95:\n        /* \"#utility.yul\":9040:9043   */\n      0x00\n        /* \"#utility.yul\":9063:9087   */\n      tag_275\n        /* \"#utility.yul\":9081:9086   */\n      dup3\n        /* \"#utility.yul\":9063:9087   */\n      tag_130\n      jump\t// in\n    tag_275:\n        /* \"#utility.yul\":9054:9087   */\n      swap2\n      pop\n        /* \"#utility.yul\":9109:9175   */\n      0xffffffffffffffffffffffffffffffffffffffffffffffffffffffffffffffff\n        /* \"#utility.yul\":9102:9107   */\n      dup3\n        /* \"#utility.yul\":9099:9176   */\n      sub\n        /* \"#utility.yul\":9096:9199   */\n      tag_276\n      jumpi\n        /* \"#utility.yul\":9179:9197   */\n      tag_277\n      tag_154\n      jump\t// in\n    tag_277:\n        /* \"#utility.yul\":9096:9199   */\n    tag_276:\n        /* \"#utility.yul\":9226:9227   */\n      0x01\n        /* \"#utility.yul\":9219:9224   */\n      dup3\n        /* \"#utility.yul\":9215:9228   */\n      add\n        /* \"#utility.yul\":9208:9228   */\n      swap1\n      pop\n        /* \"#utility.yul\":9001:9234   */\n      swap2\n      swap1\n      pop\n      jump\t// out\n        /* \"#utility.yul\":9240:9420   */\n    tag_155:\n        /* \"#utility.yul\":9288:9365   */\n      0x4e487b7100000000000000000000000000000000000000000000000000000000\n        /* \"#utility.yul\":9285:9286   */\n      0x00\n        /* \"#utility.yul\":9278:9366   */\n      mstore\n        /* \"#utility.yul\":9385:9389   */\n      0x22\n        /* \"#utility.yul\":9382:9383   */\n      0x04\n        /* \"#utility.yul\":9375:9390   */\n      mstore\n        /* \"#utility.yul\":9409:9413   */\n      0x24\n        /* \"#utility.yul\":9406:9407   */\n      0x00\n        /* \"#utility.yul\":9399:9414   */\n      revert\n        /* \"#utility.yul\":9426:9746   */\n    tag_109:\n        /* \"#utility.yul\":9470:9476   */\n      0x00\n        /* \"#utility.yul\":9507:9508   */\n      0x02\n        /* \"#utility.yul\":9501:9505   */\n      dup3\n        /* \"#utility.yul\":9497:9509   */\n      div\n        /* \"#utility.yul\":9487:9509   */\n      swap1\n      pop\n        /* \"#utility.yul\":9554:9555   */\n      0x01\n        /* \"#utility.yul\":9548:9552   */\n      dup3\n        /* \"#utility.yul\":9544:9556   */\n      and\n        /* \"#utility.yul\":9575:9593   */\n      dup1\n        /* \"#utility.yul\":9565:9646   */\n      tag_280\n      jumpi\n        /* \"#utility.yul\":9631:9635   */\n      0x7f\n        /* \"#utility.yul\":9623:9629   */\n      dup3\n        /* \"#utility.yul\":9619:9636   */\n      and\n        /* \"#utility.yul\":9609:9636   */\n      swap2\n      pop\n        /* \"#utility.yul\":9565:9646   */\n    tag_280:\n        /* \"#utility.yul\":9693:9695   */\n      0x20\n        /* \"#utility.yul\":9685:9691   */\n      dup3\n        /* \"#utility.yul\":9682:9696   */\n      lt\n        /* \"#utility.yul\":9662:9680   */\n      dup2\n        /* \"#utility.yul\":9659:9697   */\n      sub\n        /* \"#utility.yul\":9656:9740   */\n      tag_281\n      jumpi\n        /* \"#utility.yul\":9712:9730   */\n      tag_282\n      tag_155\n      jump\t// in\n    tag_282:\n        /* \"#utility.yul\":9656:9740   */\n    tag_281:\n        /* \"#utility.yul\":9477:9746   */\n      pop\n        /* \"#utility.yul\":9426:9746   */\n      swap2\n      swap1\n      pop\n      jump\t// out\n        /* \"#utility.yul\":9752:9893   */\n    tag_156:\n        /* \"#utility.yul\":9801:9805   */\n      0x00\n        /* \"#utility.yul\":9824:9827   */\n      dup2\n        /* \"#utility.yul\":9816:9827   */\n      swap1\n      pop\n        /* \"#utility.yul\":9847:9850   */\n      dup2\n        /* \"#utility.yul\":9844:9845   */\n      0x00\n        /* \"#utility.yul\":9837:9851   */\n      mstore\n        /* \"#utility.yul\":9881:9885   */\n      0x20\n        /* \"#utility.yul\":9878:9879   */\n      0x00\n        /* \"#utility.yul\":9868:9886   */\n      keccak256\n        /* \"#utility.yul\":9860:9886   */\n      swap1\n      pop\n        /* \"#utility.yul\":9752:9893   */\n      swap2\n      swap1\n      pop\n      jump\t// out\n        /* \"#utility.yul\":9899:9992   */\n    tag_157:\n        /* \"#utility.yul\":9936:9942   */\n      0x00\n        /* \"#utility.yul\":9983:9985   */\n      0x20\n        /* \"#utility.yul\":9978:9980   */\n      0x1f\n        /* \"#utility.yul\":9971:9976   */\n      dup4\n        /* \"#utility.yul\":9967:9981   */\n      add\n        /* \"#utility.yul\":9963:9986   */\n      div\n        /* \"#utility.yul\":9953:9986   */\n      swap1\n      pop\n        /* \"#utility.yul\":9899:9992   */\n      swap2\n      swap1\n      pop\n      jump\t// out\n        /* \"#utility.yul\":9998:10105   */\n    tag_158:\n        /* \"#utility.yul\":10042:10050   */\n      0x00\n        /* \"#utility.yul\":10092:10097   */\n      dup3\n        /* \"#utility.yul\":10086:10090   */\n      dup3\n        /* \"#utility.yul\":10082:10098   */\n      shl\n        /* \"#utility.yul\":10061:10098   */\n      swap1\n      pop\n        /* \"#utility.yul\":9998:10105   */\n      swap3\n      swap2\n      pop\n      pop\n      jump\t// out\n        /* \"#utility.yul\":10111:10504   */\n    tag_159:\n        /* \"#utility.yul\":10180:10186   */\n      0x00\n        /* \"#utility.yul\":10230:10231   */\n      0x08\n        /* \"#utility.yul\":10218:10228   */\n      dup4\n        /* \"#utility.yul\":10214:10232   */\n      mul\n        /* \"#utility.yul\":10253:10350   */\n      tag_287\n        /* \"#utility.yul\":10283:10349   */\n      0xffffffffffffffffffffffffffffffffffffffffffffffffffffffffffffffff\n        /* \"#utility.yul\":10272:10281   */\n      dup3\n        /* \"#utility.yul\":10253:10350   */\n      tag_158\n      jump\t// in\n    tag_287:\n        /* \"#utility.yul\":10371:10410   */\n      tag_288\n        /* \"#utility.yul\":10401:10409   */\n      dup7\n        /* \"#utility.yul\":10390:10399   */\n      dup4\n        /* \"#utility.yul\":10371:10410   */\n      tag_158\n      jump\t// in\n    tag_288:\n        /* \"#utility.yul\":10359:10410   */\n      swap6\n      pop\n        /* \"#utility.yul\":10443:10447   */\n      dup1\n        /* \"#utility.yul\":10439:10448   */\n      not\n        /* \"#utility.yul\":10432:10437   */\n      dup5\n        /* \"#utility.yul\":10428:10449   */\n      and\n        /* \"#utility.yul\":10419:10449   */\n      swap4\n      pop\n        /* \"#utility.yul\":10492:10496   */\n      dup1\n        /* \"#utility.yul\":10482:10490   */\n      dup7\n        /* \"#utility.yul\":10478:10497   */\n      and\n        /* \"#utility.yul\":10471:10476   */\n      dup5\n        /* \"#utility.yul\":10468:10498   */\n      or\n        /* \"#utility.yul\":10458:10498   */\n      swap3\n      pop\n        /* \"#utility.yul\":10187:10504   */\n      pop\n      pop\n        /* \"#utility.yul\":10111:10504   */\n      swap4\n      swap3\n      pop\n      pop\n      pop\n      jump\t// out\n        /* \"#utility.yul\":10510:10570   */\n    tag_160:\n        /* \"#utility.yul\":10538:10541   */\n      0x00\n        /* \"#utility.yul\":10559:10564   */\n      dup2\n        /* \"#utility.yul\":10552:10564   */\n      swap1\n      pop\n        /* \"#utility.yul\":10510:10570   */\n      swap2\n      swap1\n      pop\n      jump\t// out\n        /* \"#utility.yul\":10576:10718   */\n    tag_161:\n        /* \"#utility.yul\":10626:10635   */\n      0x00\n        /* \"#utility.yul\":10659:10712   */\n      tag_291\n        /* \"#utility.yul\":10677:10711   */\n      tag_292\n        /* \"#utility.yul\":10686:10710   */\n      tag_293\n        /* \"#utility.yul\":10704:10709   */\n      dup5\n        /* \"#utility.yul\":10686:10710   */\n      tag_130\n      jump\t// in\n    tag_293:\n        /* \"#utility.yul\":10677:10711   */\n      tag_160\n      jump\t// in\n    tag_292:\n        /* \"#utility.yul\":10659:10712   */\n      tag_130\n      jump\t// in\n    tag_291:\n        /* \"#utility.yul\":10646:10712   */\n      swap1\n      pop\n        /* \"#utility.yul\":10576:10718   */\n      swap2\n      swap1\n      pop\n      jump\t// out\n        /* \"#utility.yul\":10724:10799   */\n    tag_162:\n        /* \"#utility.yul\":10767:10770   */\n      0x00\n        /* \"#utility.yul\":10788:10793   */\n      dup2\n        /* \"#utility.yul\":10781:10793   */\n      swap1\n      pop\n        /* \"#utility.yul\":10724:10799   */\n      swap2\n      swap1\n      pop\n      jump\t// out\n        /* \"#utility.yul\":10805:11074   */\n    tag_163:\n        /* \"#utility.yul\":10915:10954   */\n      tag_296\n        /* \"#utility.yul\":10946:10953   */\n      dup4\n        /* \"#utility.yul\":10915:10954   */\n      tag_161\n      jump\t// in\n    tag_296:\n        /* \"#utility.yul\":10976:11067   */\n      tag_297\n        /* \"#utility.yul\":11025:11066   */\n      tag_298\n        /* \"#utility.yul\":11049:11065   */\n      dup3\n        /* \"#utility.yul\":11025:11066   */\n      tag_162\n      jump\t// in\n    tag_298:\n        /* \"#utility.yul\":11017:11023   */\n      dup5\n        /* \"#utility.yul\":11010:11014   */\n      dup5\n        /* \"#utility.yul\":11004:11015   */\n      sload\n        /* \"#utility.yul\":10976:11067   */\n      tag_159\n      jump\t// in\n    tag_297:\n        /* \"#utility.yul\":10970:10974   */\n      dup3\n        /* \"#utility.yul\":10963:11068   */\n      sstore\n        /* \"#utility.yul\":10881:11074   */\n      pop\n        /* \"#utility.yul\":10805:11074   */\n      pop\n      pop\n      pop\n      jump\t// out\n        /* \"#utility.yul\":11080:11153   */\n    tag_164:\n        /* \"#utility.yul\":11125:11128   */\n      0x00\n        /* \"#utility.yul\":11080:11153   */\n      swap1\n      jump\t// out\n        /* \"#utility.yul\":11159:11348   */\n    tag_165:\n        /* \"#utility.yul\":11236:11268   */\n      tag_301\n      tag_164\n      jump\t// in\n    tag_301:\n        /* \"#utility.yul\":11277:11342   */\n      tag_302\n        /* \"#utility.yul\":11335:11341   */\n      dup2\n        /* \"#utility.yul\":11327:11333   */\n      dup5\n        /* \"#utility.yul\":11321:11325   */\n      dup5\n        /* \"#utility.yul\":11277:11342   */\n      tag_163\n      jump\t// in\n    tag_302:\n        /* \"#utility.yul\":11212:11348   */\n      pop\n        /* \"#utility.yul\":11159:11348   */\n      pop\n      pop\n      jump\t// out\n        /* \"#utility.yul\":11354:11540   */\n    tag_166:\n        /* \"#utility.yul\":11414:11534   */\n    tag_304:\n        /* \"#utility.yul\":11431:11434   */\n      dup2\n        /* \"#utility.yul\":11424:11429   */\n      dup2\n        /* \"#utility.yul\":11421:11435   */\n      lt\n        /* \"#utility.yul\":11414:11534   */\n      iszero\n      tag_306\n      jumpi\n        /* \"#utility.yul\":11485:11524   */\n      tag_307\n        /* \"#utility.yul\":11522:11523   */\n      0x00\n        /* \"#utility.yul\":11515:11520   */\n      dup3\n        /* \"#utility.yul\":11485:11524   */\n      tag_165\n      jump\t// in\n    tag_307:\n        /* \"#utility.yul\":11458:11459   */\n      0x01\n        /* \"#utility.yul\":11451:11456   */\n      dup2\n        /* \"#utility.yul\":11447:11460   */\n      add\n        /* \"#utility.yul\":11438:11460   */\n      swap1\n      pop\n        /* \"#utility.yul\":11414:11534   */\n      jump(tag_304)\n    tag_306:\n        /* \"#utility.yul\":11354:11540   */\n      pop\n      pop\n      jump\t// out\n        /* \"#utility.yul\":11546:12089   */\n    tag_167:\n        /* \"#utility.yul\":11647:11649   */\n      0x1f\n        /* \"#utility.yul\":11642:11645   */\n      dup3\n        /* \"#utility.yul\":11639:11650   */\n      gt\n        /* \"#utility.yul\":11636:12082   */\n      iszero\n      tag_309\n      jumpi\n        /* \"#utility.yul\":11681:11719   */\n      tag_310\n        /* \"#utility.yul\":11713:11718   */\n      dup2\n        /* \"#utility.yul\":11681:11719   */\n      tag_156\n      jump\t// in\n    tag_310:\n        /* \"#utility.yul\":11765:11794   */\n      tag_311\n        /* \"#utility.yul\":11783:11793   */\n      dup5\n        /* \"#utility.yul\":11765:11794   */\n      tag_157\n      jump\t// in\n    tag_311:\n        /* \"#utility.yul\":11755:11763   */\n      dup2\n        /* \"#utility.yul\":11751:11795   */\n      add\n        /* \"#utility.yul\":11948:11950   */\n      0x20\n        /* \"#utility.yul\":11936:11946   */\n      dup6\n        /* \"#utility.yul\":11933:11951   */\n      lt\n        /* \"#utility.yul\":11930:11979   */\n      iszero\n      tag_312\n      jumpi\n        /* \"#utility.yul\":11969:11977   */\n      dup2\n        /* \"#utility.yul\":11954:11977   */\n      swap1\n      pop\n        /* \"#utility.yul\":11930:11979   */\n    tag_312:\n        /* \"#utility.yul\":11992:12072   */\n      tag_313\n        /* \"#utility.yul\":12048:12070   */\n      tag_314\n        /* \"#utility.yul\":12066:12069   */\n      dup6\n        /* \"#utility.yul\":12048:12070   */\n      tag_157\n      jump\t// in\n    tag_314:\n        /* \"#utility.yul\":12038:12046   */\n      dup4\n        /* \"#utility.yul\":12034:12071   */\n      add\n        /* \"#utility.yul\":12021:12032   */\n      dup3\n        /* \"#utility.yul\":11992:12072   */\n      tag_166\n      jump\t// in\n    tag_313:\n        /* \"#utility.yul\":11651:12082   */\n      pop\n      pop\n        /* \"#utility.yul\":11636:12082   */\n    tag_309:\n        /* \"#utility.yul\":11546:12089   */\n      pop\n      pop\n      pop\n      jump\t// out\n        /* \"#utility.yul\":12095:12212   */\n    tag_168:\n        /* \"#utility.yul\":12149:12157   */\n      0x00\n        /* \"#utility.yul\":12199:12204   */\n      dup3\n        /* \"#utility.yul\":12193:12197   */\n      dup3\n        /* \"#utility.yul\":12189:12205   */\n      shr\n        /* \"#utility.yul\":12168:12205   */\n      swap1\n      pop\n        /* \"#utility.yul\":12095:12212   */\n      swap3\n      swap2\n      pop\n      pop\n      jump\t// out\n        /* \"#utility.yul\":12218:12387   */\n    tag_169:\n        /* \"#utility.yul\":12262:12268   */\n      0x00\n        /* \"#utility.yul\":12295:12346   */\n      tag_317\n        /* \"#utility.yul\":12343:12344   */\n      0x00\n        /* \"#utility.yul\":12339:12345   */\n      not\n        /* \"#utility.yul\":12331:12336   */\n      dup5\n        /* \"#utility.yul\":12328:12329   */\n      0x08\n        /* \"#utility.yul\":12324:12337   */\n      mul\n        /* \"#utility.yul\":12295:12346   */\n      tag_168\n      jump\t// in\n    tag_317:\n        /* \"#utility.yul\":12291:12347   */\n      not\n        /* \"#utility.yul\":12376:12380   */\n      dup1\n        /* \"#utility.yul\":12370:12374   */\n      dup4\n        /* \"#utility.yul\":12366:12381   */\n      and\n        /* \"#utility.yul\":12356:12381   */\n      swap2\n      pop\n        /* \"#utility.yul\":12269:12387   */\n      pop\n        /* \"#utility.yul\":12218:12387   */\n      swap3\n      swap2\n      pop\n      pop\n      jump\t// out\n        /* \"#utility.yul\":12392:12687   */\n    tag_170:\n        /* \"#utility.yul\":12468:12472   */\n      0x00\n        /* \"#utility.yul\":12614:12643   */\n      tag_319\n        /* \"#utility.yul\":12639:12642   */\n      dup4\n        /* \"#utility.yul\":12633:12637   */\n      dup4\n        /* \"#utility.yul\":12614:12643   */\n      tag_169\n      jump\t// in\n    tag_319:\n        /* \"#utility.yul\":12606:12643   */\n      swap2\n      pop\n        /* \"#utility.yul\":12676:12679   */\n      dup3\n        /* \"#utility.yul\":12673:12674   */\n      0x02\n        /* \"#utility.yul\":12669:12680   */\n      mul\n        /* \"#utility.yul\":12663:12667   */\n      dup3\n        /* \"#utility.yul\":12660:12681   */\n      or\n        /* \"#utility.yul\":12652:12681   */\n      swap1\n      pop\n        /* \"#utility.yul\":12392:12687   */\n      swap3\n      swap2\n      pop\n      pop\n      jump\t// out\n        /* \"#utility.yul\":12692:14087   */\n    tag_99:\n        /* \"#utility.yul\":12809:12846   */\n      tag_321\n        /* \"#utility.yul\":12842:12845   */\n      dup3\n        /* \"#utility.yul\":12809:12846   */\n      tag_134\n      jump\t// in\n    tag_321:\n        /* \"#utility.yul\":12911:12929   */\n      0xffffffffffffffff\n        /* \"#utility.yul\":12903:12909   */\n      dup2\n        /* \"#utility.yul\":12900:12930   */\n      gt\n        /* \"#utility.yul\":12897:12953   */\n      iszero\n      tag_322\n      jumpi\n        /* \"#utility.yul\":12933:12951   */\n      tag_323\n      tag_141\n      jump\t// in\n    tag_323:\n        /* \"#utility.yul\":12897:12953   */\n    tag_322:\n        /* \"#utility.yul\":12977:13015   */\n      tag_324\n        /* \"#utility.yul\":13009:13013   */\n      dup3\n        /* \"#utility.yul\":13003:13014   */\n      sload\n        /* \"#utility.yul\":12977:13015   */\n      tag_109\n      jump\t// in\n    tag_324:\n        /* \"#utility.yul\":13062:13129   */\n      tag_325\n        /* \"#utility.yul\":13122:13128   */\n      dup3\n        /* \"#utility.yul\":13114:13120   */\n      dup3\n        /* \"#utility.yul\":13108:13112   */\n      dup6\n        /* \"#utility.yul\":13062:13129   */\n      tag_167\n      jump\t// in\n    tag_325:\n        /* \"#utility.yul\":13156:13157   */\n      0x00\n        /* \"#utility.yul\":13180:13184   */\n      0x20\n        /* \"#utility.yul\":13167:13184   */\n      swap1\n      pop\n        /* \"#utility.yul\":13212:13214   */\n      0x1f\n        /* \"#utility.yul\":13204:13210   */\n      dup4\n        /* \"#utility.yul\":13201:13215   */\n      gt\n        /* \"#utility.yul\":13229:13230   */\n      0x01\n        /* \"#utility.yul\":13224:13842   */\n      dup2\n      eq\n      tag_327\n      jumpi\n        /* \"#utility.yul\":13886:13887   */\n      0x00\n        /* \"#utility.yul\":13903:13909   */\n      dup5\n        /* \"#utility.yul\":13900:13977   */\n      iszero\n      tag_328\n      jumpi\n        /* \"#utility.yul\":13952:13961   */\n      dup3\n        /* \"#utility.yul\":13947:13950   */\n      dup8\n        /* \"#utility.yul\":13943:13962   */\n      add\n        /* \"#utility.yul\":13937:13963   */\n      mload\n        /* \"#utility.yul\":13928:13963   */\n      swap1\n      pop\n        /* \"#utility.yul\":13900:13977   */\n    tag_328:\n        /* \"#utility.yul\":14003:14070   */\n      tag_329\n        /* \"#utility.yul\":14063:14069   */\n      dup6\n        /* \"#utility.yul\":14056:14061   */\n      dup3\n        /* \"#utility.yul\":14003:14070   */\n      tag_170\n      jump\t// in\n    tag_329:\n        /* \"#utility.yul\":13997:14001   */\n      dup7\n        /* \"#utility.yul\":13990:14071   */\n      sstore\n        /* \"#utility.yul\":13859:14081   */\n      pop\n        /* \"#utility.yul\":13194:14081   */\n      jump(tag_326)\n        /* \"#utility.yul\":13224:13842   */\n    tag_327:\n        /* \"#utility.yul\":13276:13280   */\n      0x1f\n        /* \"#utility.yul\":13272:13281   */\n      not\n        /* \"#utility.yul\":13264:13270   */\n      dup5\n        /* \"#utility.yul\":13260:13282   */\n      and\n        /* \"#utility.yul\":13310:13347   */\n      tag_330\n        /* \"#utility.yul\":13342:13346   */\n      dup7\n        /* \"#utility.yul\":13310:13347   */\n      tag_156\n      jump\t// in\n    tag_330:\n        /* \"#utility.yul\":13369:13370   */\n      0x00\n        /* \"#utility.yul\":13383:13591   */\n    tag_331:\n        /* \"#utility.yul\":13397:13404   */\n      dup3\n        /* \"#utility.yul\":13394:13395   */\n      dup2\n        /* \"#utility.yul\":13391:13405   */\n      lt\n        /* \"#utility.yul\":13383:13591   */\n      iszero\n      tag_333\n      jumpi\n        /* \"#utility.yul\":13476:13485   */\n      dup5\n        /* \"#utility.yul\":13471:13474   */\n      dup10\n        /* \"#utility.yul\":13467:13486   */\n      add\n        /* \"#utility.yul\":13461:13487   */\n      mload\n        /* \"#utility.yul\":13453:13459   */\n      dup3\n        /* \"#utility.yul\":13446:13488   */\n      sstore\n        /* \"#utility.yul\":13527:13528   */\n      0x01\n        /* \"#utility.yul\":13519:13525   */\n      dup3\n        /* \"#utility.yul\":13515:13529   */\n      add\n        /* \"#utility.yul\":13505:13529   */\n      swap2\n      pop\n        /* \"#utility.yul\":13574:13576   */\n      0x20\n        /* \"#utility.yul\":13563:13572   */\n      dup6\n        /* \"#utility.yul\":13559:13577   */\n      add\n        /* \"#utility.yul\":13546:13577   */\n      swap5\n      pop\n        /* \"#utility.yul\":13420:13424   */\n      0x20\n        /* \"#utility.yul\":13417:13418   */\n      dup2\n        /* \"#utility.yul\":13413:13425   */\n      add\n        /* \"#utility.yul\":13408:13425   */\n      swap1\n      pop\n        /* \"#utility.yul\":13383:13591   */\n      jump(tag_331)\n    tag_333:\n        /* \"#utility.yul\":13619:13625   */\n      dup7\n        /* \"#utility.yul\":13610:13617   */\n      dup4\n        /* \"#utility.yul\":13607:13626   */\n      lt\n        /* \"#utility.yul\":13604:13783   */\n      iszero\n      tag_334\n      jumpi\n        /* \"#utility.yul\":13677:13686   */\n      dup5\n        /* \"#utility.yul\":13672:13675   */\n      dup10\n        /* \"#utility.yul\":13668:13687   */\n      add\n        /* \"#utility.yul\":13662:13688   */\n      mload\n        /* \"#utility.yul\":13720:13768   */\n      tag_335\n        /* \"#utility.yul\":13762:13766   */\n      0x1f\n        /* \"#utility.yul\":13754:13760   */\n      dup10\n        /* \"#utility.yul\":13750:13767   */\n      and\n        /* \"#utility.yul\":13739:13748   */\n      dup3\n        /* \"#utility.yul\":13720:13768   */\n      tag_169\n      jump\t// in\n    tag_335:\n        /* \"#utility.yul\":13712:13718   */\n      dup4\n        /* \"#utility.yul\":13705:13769   */\n      sstore\n        /* \"#utility.yul\":13627:13783   */\n      pop\n        /* \"#utility.yul\":13604:13783   */\n    tag_334:\n        /* \"#utility.yul\":13829:13830   */\n      0x01\n        /* \"#utility.yul\":13825:13826   */\n      0x02\n        /* \"#utility.yul\":13817:13823   */\n      dup9\n        /* \"#utility.yul\":13813:13827   */\n      mul\n        /* \"#utility.yul\":13809:13831   */\n      add\n        /* \"#utility.yul\":13803:13807   */\n      dup9\n        /* \"#utility.yul\":13796:13832   */\n      sstore\n        /* \"#utility.yul\":13231:13842   */\n      pop\n      pop\n      pop\n        /* \"#utility.yul\":13194:14081   */\n    tag_326:\n      pop\n        /* \"#utility.yul\":12784:14087   */\n      pop\n      pop\n      pop\n        /* \"#utility.yul\":12692:14087   */\n      pop\n      pop\n      jump\t// out\n\n    auxdata: 0xa26469706673582212203bf23cb3fd35436d0d39844e3e58397823645002f3cc645b3bd3a965def516a664736f6c634300081a0033\n}\n",
				"bytecode": {
					"linkReferences": {},
					"object": "6080604052348015600e575f80fd5b50610e238061001c5f395ff3fe608060405234801561000f575f80fd5b50600436106100f3575f3560e01c80638fda356d11610095578063b633941811610064578063b63394181461024e578063bca353be1461026a578063c19d93fb14610274578063cb6a33f814610292576100f3565b80638fda356d146101d95780639e7a13ad146101e3578063a621d15e14610214578063a7e1a36414610232576100f3565b80633a32b549116100d15780633a32b5491461016357806355987940146101815780636f760f411461019f5780638e89b43d146101bb576100f3565b806322f3e2d4146100f757806329cd1d96146101155780632fb4b0c714610145575b5f80fd5b6100ff6102c2565b60405161010c9190610648565b60405180910390f35b61012f600480360381019061012a91906106a5565b6102fd565b60405161013c91906106df565b60405180910390f35b61014d61031d565b60405161015a9190610768565b60405180910390f35b61016b610394565b6040516101789190610768565b60405180910390f35b6101896103d1565b60405161019691906106df565b60405180910390f35b6101b960048036038101906101b491906108b4565b61040d565b005b6101c361046e565b6040516101d09190610768565b60405180910390f35b6101e161047d565b005b6101fd60048036038101906101f891906106a5565b6104a8565b60405161020b92919061090e565b60405180910390f35b61021c61055d565b60405161022991906106df565b60405180910390f35b61024c600480360381019061024791906106a5565b610565565b005b610268600480360381019061026391906106a5565b61058e565b005b610272610597565b005b61027c6105c3565b60405161028991906109af565b60405180910390f35b6102ac60048036038101906102a791906106a5565b6105d5565b6040516102b99190610648565b60405180910390f35b5f8060018111156102d6576102d561093c565b5b60035f9054906101000a900460ff1660018111156102f7576102f661093c565b5b14905090565b6001818154811061030c575f80fd5b905f5260205f20015f915090505481565b60603073ffffffffffffffffffffffffffffffffffffffff16632fb4b0c76040518163ffffffff1660e01b81526004015f60405180830381865afa158015610367573d5f803e3d5ffd5b505050506040513d5f823e3d601f19601f8201168201806040525081019061038f9190610a36565b905090565b60606040518060400160405280601c81526020017f5468697320697320616e2065787465726e616c2066756e6374696f6e00000000815250905090565b5f805f90505f600190505b5f5481116104055780826103f09190610aaa565b915080806103fd90610add565b9150506103dc565b508091505090565b6002604051806040016040528084815260200183815250908060018154018082558091505060019003905f5260205f2090600202015f909190919091505f820151815f01908161045d9190610d1e565b506020820151816001015550505050565b60606104786105f1565b905090565b5f60035f6101000a81548160ff021916908360018111156104a1576104a061093c565b5b0217905550565b600281815481106104b7575f80fd5b905f5260205f2090600202015f91509050805f0180546104d690610b51565b80601f016020809104026020016040519081016040528092919081815260200182805461050290610b51565b801561054d5780601f106105245761010080835404028352916020019161054d565b820191905f5260205f20905b81548152906001019060200180831161053057829003601f168201915b5050505050908060010154905082565b5f8054905090565b600181908060018154018082558091505060019003905f5260205f20015f909190919091505550565b805f8190555050565b600160035f6101000a81548160ff021916908360018111156105bc576105bb61093c565b5b0217905550565b60035f9054906101000a900460ff1681565b5f815f5411156105e857600190506105ec565b5f90505b919050565b60606040518060400160405280601c81526020017f5468697320697320616e20696e7465726e616c2066756e6374696f6e00000000815250905090565b5f8115159050919050565b6106428161062e565b82525050565b5f60208201905061065b5f830184610639565b92915050565b5f604051905090565b5f80fd5b5f80fd5b5f819050919050565b61068481610672565b811461068e575f80fd5b50565b5f8135905061069f8161067b565b92915050565b5f602082840312156106ba576106b961066a565b5b5f6106c784828501610691565b91505092915050565b6106d981610672565b82525050565b5f6020820190506106f25f8301846106d0565b92915050565b5f81519050919050565b5f82825260208201905092915050565b8281835e5f83830152505050565b5f601f19601f8301169050919050565b5f61073a826106f8565b6107448185610702565b9350610754818560208601610712565b61075d81610720565b840191505092915050565b5f6020820190508181035f8301526107808184610730565b905092915050565b5f80fd5b5f80fd5b7f4e487b71000000000000000000000000000000000000000000000000000000005f52604160045260245ffd5b6107c682610720565b810181811067ffffffffffffffff821117156107e5576107e4610790565b5b80604052505050565b5f6107f7610661565b905061080382826107bd565b919050565b5f67ffffffffffffffff82111561082257610821610790565b5b61082b82610720565b9050602081019050919050565b828183375f83830152505050565b5f61085861085384610808565b6107ee565b9050828152602081018484840111156108745761087361078c565b5b61087f848285610838565b509392505050565b5f82601f83011261089b5761089a610788565b5b81356108ab848260208601610846565b91505092915050565b5f80604083850312156108ca576108c961066a565b5b5f83013567ffffffffffffffff8111156108e7576108e661066e565b5b6108f385828601610887565b925050602061090485828601610691565b9150509250929050565b5f6040820190508181035f8301526109268185610730565b905061093560208301846106d0565b9392505050565b7f4e487b71000000000000000000000000000000000000000000000000000000005f52602160045260245ffd5b6002811061097a5761097961093c565b5b50565b5f81905061098a82610969565b919050565b5f6109998261097d565b9050919050565b6109a98161098f565b82525050565b5f6020820190506109c25f8301846109a0565b92915050565b5f6109da6109d584610808565b6107ee565b9050828152602081018484840111156109f6576109f561078c565b5b610a01848285610712565b509392505050565b5f82601f830112610a1d57610a1c610788565b5b8151610a2d8482602086016109c8565b91505092915050565b5f60208284031215610a4b57610a4a61066a565b5b5f82015167ffffffffffffffff811115610a6857610a6761066e565b5b610a7484828501610a09565b91505092915050565b7f4e487b71000000000000000000000000000000000000000000000000000000005f52601160045260245ffd5b5f610ab482610672565b9150610abf83610672565b9250828201905080821115610ad757610ad6610a7d565b5b92915050565b5f610ae782610672565b91507fffffffffffffffffffffffffffffffffffffffffffffffffffffffffffffffff8203610b1957610b18610a7d565b5b600182019050919050565b7f4e487b71000000000000000000000000000000000000000000000000000000005f52602260045260245ffd5b5f6002820490506001821680610b6857607f821691505b602082108103610b7b57610b7a610b24565b5b50919050565b5f819050815f5260205f209050919050565b5f6020601f8301049050919050565b5f82821b905092915050565b5f60088302610bdd7fffffffffffffffffffffffffffffffffffffffffffffffffffffffffffffffff82610ba2565b610be78683610ba2565b95508019841693508086168417925050509392505050565b5f819050919050565b5f610c22610c1d610c1884610672565b610bff565b610672565b9050919050565b5f819050919050565b610c3b83610c08565b610c4f610c4782610c29565b848454610bae565b825550505050565b5f90565b610c63610c57565b610c6e818484610c32565b505050565b5b81811015610c9157610c865f82610c5b565b600181019050610c74565b5050565b601f821115610cd657610ca781610b81565b610cb084610b93565b81016020851015610cbf578190505b610cd3610ccb85610b93565b830182610c73565b50505b505050565b5f82821c905092915050565b5f610cf65f1984600802610cdb565b1980831691505092915050565b5f610d0e8383610ce7565b9150826002028217905092915050565b610d27826106f8565b67ffffffffffffffff811115610d4057610d3f610790565b5b610d4a8254610b51565b610d55828285610c95565b5f60209050601f831160018114610d86575f8415610d74578287015190505b610d7e8582610d03565b865550610de5565b601f198416610d9486610b81565b5f5b82811015610dbb57848901518255600182019150602085019450602081019050610d96565b86831015610dd85784890151610dd4601f891682610ce7565b8355505b6001600288020188555050505b50505050505056fea26469706673582212203bf23cb3fd35436d0d39844e3e58397823645002f3cc645b3bd3a965def516a664736f6c634300081a0033",
					"opcodes": "PUSH1 0x80 PUSH1 0x40 MSTORE CALLVALUE DUP1 ISZERO PUSH1 0xE JUMPI PUSH0 DUP1 REVERT JUMPDEST POP PUSH2 0xE23 DUP1 PUSH2 0x1C PUSH0 CODECOPY PUSH0 RETURN INVALID PUSH1 0x80 PUSH1 0x40 MSTORE CALLVALUE DUP1 ISZERO PUSH2 0xF JUMPI PUSH0 DUP1 REVERT JUMPDEST POP PUSH1 0x4 CALLDATASIZE LT PUSH2 0xF3 JUMPI PUSH0 CALLDATALOAD PUSH1 0xE0 SHR DUP1 PUSH4 0x8FDA356D GT PUSH2 0x95 JUMPI DUP1 PUSH4 0xB6339418 GT PUSH2 0x64 JUMPI DUP1 PUSH4 0xB6339418 EQ PUSH2 0x24E JUMPI DUP1 PUSH4 0xBCA353BE EQ PUSH2 0x26A JUMPI DUP1 PUSH4 0xC19D93FB EQ PUSH2 0x274 JUMPI DUP1 PUSH4 0xCB6A33F8 EQ PUSH2 0x292 JUMPI PUSH2 0xF3 JUMP JUMPDEST DUP1 PUSH4 0x8FDA356D EQ PUSH2 0x1D9 JUMPI DUP1 PUSH4 0x9E7A13AD EQ PUSH2 0x1E3 JUMPI DUP1 PUSH4 0xA621D15E EQ PUSH2 0x214 JUMPI DUP1 PUSH4 0xA7E1A364 EQ PUSH2 0x232 JUMPI PUSH2 0xF3 JUMP JUMPDEST DUP1 PUSH4 0x3A32B549 GT PUSH2 0xD1 JUMPI DUP1 PUSH4 0x3A32B549 EQ PUSH2 0x163 JUMPI DUP1 PUSH4 0x55987940 EQ PUSH2 0x181 JUMPI DUP1 PUSH4 0x6F760F41 EQ PUSH2 0x19F JUMPI DUP1 PUSH4 0x8E89B43D EQ PUSH2 0x1BB JUMPI PUSH2 0xF3 JUMP JUMPDEST DUP1 PUSH4 0x22F3E2D4 EQ PUSH2 0xF7 JUMPI DUP1 PUSH4 0x29CD1D96 EQ PUSH2 0x115 JUMPI DUP1 PUSH4 0x2FB4B0C7 EQ PUSH2 0x145 JUMPI JUMPDEST PUSH0 DUP1 REVERT JUMPDEST PUSH2 0xFF PUSH2 0x2C2 JUMP JUMPDEST PUSH1 0x40 MLOAD PUSH2 0x10C SWAP2 SWAP1 PUSH2 0x648 JUMP JUMPDEST PUSH1 0x40 MLOAD DUP1 SWAP2 SUB SWAP1 RETURN JUMPDEST PUSH2 0x12F PUSH1 0x4 DUP1 CALLDATASIZE SUB DUP2 ADD SWAP1 PUSH2 0x12A SWAP2 SWAP1 PUSH2 0x6A5 JUMP JUMPDEST PUSH2 0x2FD JUMP JUMPDEST PUSH1 0x40 MLOAD PUSH2 0x13C SWAP2 SWAP1 PUSH2 0x6DF JUMP JUMPDEST PUSH1 0x40 MLOAD DUP1 SWAP2 SUB SWAP1 RETURN JUMPDEST PUSH2 0x14D PUSH2 0x31D JUMP JUMPDEST PUSH1 0x40 MLOAD PUSH2 0x15A SWAP2 SWAP1 PUSH2 0x768 JUMP JUMPDEST PUSH1 0x40 MLOAD DUP1 SWAP2 SUB SWAP1 RETURN JUMPDEST PUSH2 0x16B PUSH2 0x394 JUMP JUMPDEST PUSH1 0x40 MLOAD PUSH2 0x178 SWAP2 SWAP1 PUSH2 0x768 JUMP JUMPDEST PUSH1 0x40 MLOAD DUP1 SWAP2 SUB SWAP1 RETURN JUMPDEST PUSH2 0x189 PUSH2 0x3D1 JUMP JUMPDEST PUSH1 0x40 MLOAD PUSH2 0x196 SWAP2 SWAP1 PUSH2 0x6DF JUMP JUMPDEST PUSH1 0x40 MLOAD DUP1 SWAP2 SUB SWAP1 RETURN JUMPDEST PUSH2 0x1B9 PUSH1 0x4 DUP1 CALLDATASIZE SUB DUP2 ADD SWAP1 PUSH2 0x1B4 SWAP2 SWAP1 PUSH2 0x8B4 JUMP JUMPDEST PUSH2 0x40D JUMP JUMPDEST STOP JUMPDEST PUSH2 0x1C3 PUSH2 0x46E JUMP JUMPDEST PUSH1 0x40 MLOAD PUSH2 0x1D0 SWAP2 SWAP1 PUSH2 0x768 JUMP JUMPDEST PUSH1 0x40 MLOAD DUP1 SWAP2 SUB SWAP1 RETURN JUMPDEST PUSH2 0x1E1 PUSH2 0x47D JUMP JUMPDEST STOP JUMPDEST PUSH2 0x1FD PUSH1 0x4 DUP1 CALLDATASIZE SUB DUP2 ADD SWAP1 PUSH2 0x1F8 SWAP2 SWAP1 PUSH2 0x6A5 JUMP JUMPDEST PUSH2 0x4A8 JUMP JUMPDEST PUSH1 0x40 MLOAD PUSH2 0x20B SWAP3 SWAP2 SWAP1 PUSH2 0x90E JUMP JUMPDEST PUSH1 0x40 MLOAD DUP1 SWAP2 SUB SWAP1 RETURN JUMPDEST PUSH2 0x21C PUSH2 0x55D JUMP JUMPDEST PUSH1 0x40 MLOAD PUSH2 0x229 SWAP2 SWAP1 PUSH2 0x6DF JUMP JUMPDEST PUSH1 0x40 MLOAD DUP1 SWAP2 SUB SWAP1 RETURN JUMPDEST PUSH2 0x24C PUSH1 0x4 DUP1 CALLDATASIZE SUB DUP2 ADD SWAP1 PUSH2 0x247 SWAP2 SWAP1 PUSH2 0x6A5 JUMP JUMPDEST PUSH2 0x565 JUMP JUMPDEST STOP JUMPDEST PUSH2 0x268 PUSH1 0x4 DUP1 CALLDATASIZE SUB DUP2 ADD SWAP1 PUSH2 0x263 SWAP2 SWAP1 PUSH2 0x6A5 JUMP JUMPDEST PUSH2 0x58E JUMP JUMPDEST STOP JUMPDEST PUSH2 0x272 PUSH2 0x597 JUMP JUMPDEST STOP JUMPDEST PUSH2 0x27C PUSH2 0x5C3 JUMP JUMPDEST PUSH1 0x40 MLOAD PUSH2 0x289 SWAP2 SWAP1 PUSH2 0x9AF JUMP JUMPDEST PUSH1 0x40 MLOAD DUP1 SWAP2 SUB SWAP1 RETURN JUMPDEST PUSH2 0x2AC PUSH1 0x4 DUP1 CALLDATASIZE SUB DUP2 ADD SWAP1 PUSH2 0x2A7 SWAP2 SWAP1 PUSH2 0x6A5 JUMP JUMPDEST PUSH2 0x5D5 JUMP JUMPDEST PUSH1 0x40 MLOAD PUSH2 0x2B9 SWAP2 SWAP1 PUSH2 0x648 JUMP JUMPDEST PUSH1 0x40 MLOAD DUP1 SWAP2 SUB SWAP1 RETURN JUMPDEST PUSH0 DUP1 PUSH1 0x1 DUP2 GT ISZERO PUSH2 0x2D6 JUMPI PUSH2 0x2D5 PUSH2 0x93C JUMP JUMPDEST JUMPDEST PUSH1 0x3 PUSH0 SWAP1 SLOAD SWAP1 PUSH2 0x100 EXP SWAP1 DIV PUSH1 0xFF AND PUSH1 0x1 DUP2 GT ISZERO PUSH2 0x2F7 JUMPI PUSH2 0x2F6 PUSH2 0x93C JUMP JUMPDEST JUMPDEST EQ SWAP1 POP SWAP1 JUMP JUMPDEST PUSH1 0x1 DUP2 DUP2 SLOAD DUP2 LT PUSH2 0x30C JUMPI PUSH0 DUP1 REVERT JUMPDEST SWAP1 PUSH0 MSTORE PUSH1 0x20 PUSH0 KECCAK256 ADD PUSH0 SWAP2 POP SWAP1 POP SLOAD DUP2 JUMP JUMPDEST PUSH1 0x60 ADDRESS PUSH20 0xFFFFFFFFFFFFFFFFFFFFFFFFFFFFFFFFFFFFFFFF AND PUSH4 0x2FB4B0C7 PUSH1 0x40 MLOAD DUP2 PUSH4 0xFFFFFFFF AND PUSH1 0xE0 SHL DUP2 MSTORE PUSH1 0x4 ADD PUSH0 PUSH1 0x40 MLOAD DUP1 DUP4 SUB DUP2 DUP7 GAS STATICCALL ISZERO DUP1 ISZERO PUSH2 0x367 JUMPI RETURNDATASIZE PUSH0 DUP1 RETURNDATACOPY RETURNDATASIZE PUSH0 REVERT JUMPDEST POP POP POP POP PUSH1 0x40 MLOAD RETURNDATASIZE PUSH0 DUP3 RETURNDATACOPY RETURNDATASIZE PUSH1 0x1F NOT PUSH1 0x1F DUP3 ADD AND DUP3 ADD DUP1 PUSH1 0x40 MSTORE POP DUP2 ADD SWAP1 PUSH2 0x38F SWAP2 SWAP1 PUSH2 0xA36 JUMP JUMPDEST SWAP1 POP SWAP1 JUMP JUMPDEST PUSH1 0x60 PUSH1 0x40 MLOAD DUP1 PUSH1 0x40 ADD PUSH1 0x40 MSTORE DUP1 PUSH1 0x1C DUP2 MSTORE PUSH1 0x20 ADD PUSH32 0x5468697320697320616E2065787465726E616C2066756E6374696F6E00000000 DUP2 MSTORE POP SWAP1 POP SWAP1 JUMP JUMPDEST PUSH0 DUP1 PUSH0 SWAP1 POP PUSH0 PUSH1 0x1 SWAP1 POP JUMPDEST PUSH0 SLOAD DUP2 GT PUSH2 0x405 JUMPI DUP1 DUP3 PUSH2 0x3F0 SWAP2 SWAP1 PUSH2 0xAAA JUMP JUMPDEST SWAP2 POP DUP1 DUP1 PUSH2 0x3FD SWAP1 PUSH2 0xADD JUMP JUMPDEST SWAP2 POP POP PUSH2 0x3DC JUMP JUMPDEST POP DUP1 SWAP2 POP POP SWAP1 JUMP JUMPDEST PUSH1 0x2 PUSH1 0x40 MLOAD DUP1 PUSH1 0x40 ADD PUSH1 0x40 MSTORE DUP1 DUP5 DUP2 MSTORE PUSH1 0x20 ADD DUP4 DUP2 MSTORE POP SWAP1 DUP1 PUSH1 0x1 DUP2 SLOAD ADD DUP1 DUP3 SSTORE DUP1 SWAP2 POP POP PUSH1 0x1 SWAP1 SUB SWAP1 PUSH0 MSTORE PUSH1 0x20 PUSH0 KECCAK256 SWAP1 PUSH1 0x2 MUL ADD PUSH0 SWAP1 SWAP2 SWAP1 SWAP2 SWAP1 SWAP2 POP PUSH0 DUP3 ADD MLOAD DUP2 PUSH0 ADD SWAP1 DUP2 PUSH2 0x45D SWAP2 SWAP1 PUSH2 0xD1E JUMP JUMPDEST POP PUSH1 0x20 DUP3 ADD MLOAD DUP2 PUSH1 0x1 ADD SSTORE POP POP POP POP JUMP JUMPDEST PUSH1 0x60 PUSH2 0x478 PUSH2 0x5F1 JUMP JUMPDEST SWAP1 POP SWAP1 JUMP JUMPDEST PUSH0 PUSH1 0x3 PUSH0 PUSH2 0x100 EXP DUP2 SLOAD DUP2 PUSH1 0xFF MUL NOT AND SWAP1 DUP4 PUSH1 0x1 DUP2 GT ISZERO PUSH2 0x4A1 JUMPI PUSH2 0x4A0 PUSH2 0x93C JUMP JUMPDEST JUMPDEST MUL OR SWAP1 SSTORE POP JUMP JUMPDEST PUSH1 0x2 DUP2 DUP2 SLOAD DUP2 LT PUSH2 0x4B7 JUMPI PUSH0 DUP1 REVERT JUMPDEST SWAP1 PUSH0 MSTORE PUSH1 0x20 PUSH0 KECCAK256 SWAP1 PUSH1 0x2 MUL ADD PUSH0 SWAP2 POP SWAP1 POP DUP1 PUSH0 ADD DUP1 SLOAD PUSH2 0x4D6 SWAP1 PUSH2 0xB51 JUMP JUMPDEST DUP1 PUSH1 0x1F ADD PUSH1 0x20 DUP1 SWAP2 DIV MUL PUSH1 0x20 ADD PUSH1 0x40 MLOAD SWAP1 DUP2 ADD PUSH1 0x40 MSTORE DUP1 SWAP3 SWAP2 SWAP1 DUP2 DUP2 MSTORE PUSH1 0x20 ADD DUP3 DUP1 SLOAD PUSH2 0x502 SWAP1 PUSH2 0xB51 JUMP JUMPDEST DUP1 ISZERO PUSH2 0x54D JUMPI DUP1 PUSH1 0x1F LT PUSH2 0x524 JUMPI PUSH2 0x100 DUP1 DUP4 SLOAD DIV MUL DUP4 MSTORE SWAP2 PUSH1 0x20 ADD SWAP2 PUSH2 0x54D JUMP JUMPDEST DUP3 ADD SWAP2 SWAP1 PUSH0 MSTORE PUSH1 0x20 PUSH0 KECCAK256 SWAP1 JUMPDEST DUP2 SLOAD DUP2 MSTORE SWAP1 PUSH1 0x1 ADD SWAP1 PUSH1 0x20 ADD DUP1 DUP4 GT PUSH2 0x530 JUMPI DUP3 SWAP1 SUB PUSH1 0x1F AND DUP3 ADD SWAP2 JUMPDEST POP POP POP POP POP SWAP1 DUP1 PUSH1 0x1 ADD SLOAD SWAP1 POP DUP3 JUMP JUMPDEST PUSH0 DUP1 SLOAD SWAP1 POP SWAP1 JUMP JUMPDEST PUSH1 0x1 DUP2 SWAP1 DUP1 PUSH1 0x1 DUP2 SLOAD ADD DUP1 DUP3 SSTORE DUP1 SWAP2 POP POP PUSH1 0x1 SWAP1 SUB SWAP1 PUSH0 MSTORE PUSH1 0x20 PUSH0 KECCAK256 ADD PUSH0 SWAP1 SWAP2 SWAP1 SWAP2 SWAP1 SWAP2 POP SSTORE POP JUMP JUMPDEST DUP1 PUSH0 DUP2 SWAP1 SSTORE POP POP JUMP JUMPDEST PUSH1 0x1 PUSH1 0x3 PUSH0 PUSH2 0x100 EXP DUP2 SLOAD DUP2 PUSH1 0xFF MUL NOT AND SWAP1 DUP4 PUSH1 0x1 DUP2 GT ISZERO PUSH2 0x5BC JUMPI PUSH2 0x5BB PUSH2 0x93C JUMP JUMPDEST JUMPDEST MUL OR SWAP1 SSTORE POP JUMP JUMPDEST PUSH1 0x3 PUSH0 SWAP1 SLOAD SWAP1 PUSH2 0x100 EXP SWAP1 DIV PUSH1 0xFF AND DUP2 JUMP JUMPDEST PUSH0 DUP2 PUSH0 SLOAD GT ISZERO PUSH2 0x5E8 JUMPI PUSH1 0x1 SWAP1 POP PUSH2 0x5EC JUMP JUMPDEST PUSH0 SWAP1 POP JUMPDEST SWAP2 SWAP1 POP JUMP JUMPDEST PUSH1 0x60 PUSH1 0x40 MLOAD DUP1 PUSH1 0x40 ADD PUSH1 0x40 MSTORE DUP1 PUSH1 0x1C DUP2 MSTORE PUSH1 0x20 ADD PUSH32 0x5468697320697320616E20696E7465726E616C2066756E6374696F6E00000000 DUP2 MSTORE POP SWAP1 POP SWAP1 JUMP JUMPDEST PUSH0 DUP2 ISZERO ISZERO SWAP1 POP SWAP2 SWAP1 POP JUMP JUMPDEST PUSH2 0x642 DUP2 PUSH2 0x62E JUMP JUMPDEST DUP3 MSTORE POP POP JUMP JUMPDEST PUSH0 PUSH1 0x20 DUP3 ADD SWAP1 POP PUSH2 0x65B PUSH0 DUP4 ADD DUP5 PUSH2 0x639 JUMP JUMPDEST SWAP3 SWAP2 POP POP JUMP JUMPDEST PUSH0 PUSH1 0x40 MLOAD SWAP1 POP SWAP1 JUMP JUMPDEST PUSH0 DUP1 REVERT JUMPDEST PUSH0 DUP1 REVERT JUMPDEST PUSH0 DUP2 SWAP1 POP SWAP2 SWAP1 POP JUMP JUMPDEST PUSH2 0x684 DUP2 PUSH2 0x672 JUMP JUMPDEST DUP2 EQ PUSH2 0x68E JUMPI PUSH0 DUP1 REVERT JUMPDEST POP JUMP JUMPDEST PUSH0 DUP2 CALLDATALOAD SWAP1 POP PUSH2 0x69F DUP2 PUSH2 0x67B JUMP JUMPDEST SWAP3 SWAP2 POP POP JUMP JUMPDEST PUSH0 PUSH1 0x20 DUP3 DUP5 SUB SLT ISZERO PUSH2 0x6BA JUMPI PUSH2 0x6B9 PUSH2 0x66A JUMP JUMPDEST JUMPDEST PUSH0 PUSH2 0x6C7 DUP5 DUP3 DUP6 ADD PUSH2 0x691 JUMP JUMPDEST SWAP2 POP POP SWAP3 SWAP2 POP POP JUMP JUMPDEST PUSH2 0x6D9 DUP2 PUSH2 0x672 JUMP JUMPDEST DUP3 MSTORE POP POP JUMP JUMPDEST PUSH0 PUSH1 0x20 DUP3 ADD SWAP1 POP PUSH2 0x6F2 PUSH0 DUP4 ADD DUP5 PUSH2 0x6D0 JUMP JUMPDEST SWAP3 SWAP2 POP POP JUMP JUMPDEST PUSH0 DUP2 MLOAD SWAP1 POP SWAP2 SWAP1 POP JUMP JUMPDEST PUSH0 DUP3 DUP3 MSTORE PUSH1 0x20 DUP3 ADD SWAP1 POP SWAP3 SWAP2 POP POP JUMP JUMPDEST DUP3 DUP2 DUP4 MCOPY PUSH0 DUP4 DUP4 ADD MSTORE POP POP POP JUMP JUMPDEST PUSH0 PUSH1 0x1F NOT PUSH1 0x1F DUP4 ADD AND SWAP1 POP SWAP2 SWAP1 POP JUMP JUMPDEST PUSH0 PUSH2 0x73A DUP3 PUSH2 0x6F8 JUMP JUMPDEST PUSH2 0x744 DUP2 DUP6 PUSH2 0x702 JUMP JUMPDEST SWAP4 POP PUSH2 0x754 DUP2 DUP6 PUSH1 0x20 DUP7 ADD PUSH2 0x712 JUMP JUMPDEST PUSH2 0x75D DUP2 PUSH2 0x720 JUMP JUMPDEST DUP5 ADD SWAP2 POP POP SWAP3 SWAP2 POP POP JUMP JUMPDEST PUSH0 PUSH1 0x20 DUP3 ADD SWAP1 POP DUP2 DUP2 SUB PUSH0 DUP4 ADD MSTORE PUSH2 0x780 DUP2 DUP5 PUSH2 0x730 JUMP JUMPDEST SWAP1 POP SWAP3 SWAP2 POP POP JUMP JUMPDEST PUSH0 DUP1 REVERT JUMPDEST PUSH0 DUP1 REVERT JUMPDEST PUSH32 0x4E487B7100000000000000000000000000000000000000000000000000000000 PUSH0 MSTORE PUSH1 0x41 PUSH1 0x4 MSTORE PUSH1 0x24 PUSH0 REVERT JUMPDEST PUSH2 0x7C6 DUP3 PUSH2 0x720 JUMP JUMPDEST DUP2 ADD DUP2 DUP2 LT PUSH8 0xFFFFFFFFFFFFFFFF DUP3 GT OR ISZERO PUSH2 0x7E5 JUMPI PUSH2 0x7E4 PUSH2 0x790 JUMP JUMPDEST JUMPDEST DUP1 PUSH1 0x40 MSTORE POP POP POP JUMP JUMPDEST PUSH0 PUSH2 0x7F7 PUSH2 0x661 JUMP JUMPDEST SWAP1 POP PUSH2 0x803 DUP3 DUP3 PUSH2 0x7BD JUMP JUMPDEST SWAP2 SWAP1 POP JUMP JUMPDEST PUSH0 PUSH8 0xFFFFFFFFFFFFFFFF DUP3 GT ISZERO PUSH2 0x822 JUMPI PUSH2 0x821 PUSH2 0x790 JUMP JUMPDEST JUMPDEST PUSH2 0x82B DUP3 PUSH2 0x720 JUMP JUMPDEST SWAP1 POP PUSH1 0x20 DUP2 ADD SWAP1 POP SWAP2 SWAP1 POP JUMP JUMPDEST DUP3 DUP2 DUP4 CALLDATACOPY PUSH0 DUP4 DUP4 ADD MSTORE POP POP POP JUMP JUMPDEST PUSH0 PUSH2 0x858 PUSH2 0x853 DUP5 PUSH2 0x808 JUMP JUMPDEST PUSH2 0x7EE JUMP JUMPDEST SWAP1 POP DUP3 DUP2 MSTORE PUSH1 0x20 DUP2 ADD DUP5 DUP5 DUP5 ADD GT ISZERO PUSH2 0x874 JUMPI PUSH2 0x873 PUSH2 0x78C JUMP JUMPDEST JUMPDEST PUSH2 0x87F DUP5 DUP3 DUP6 PUSH2 0x838 JUMP JUMPDEST POP SWAP4 SWAP3 POP POP POP JUMP JUMPDEST PUSH0 DUP3 PUSH1 0x1F DUP4 ADD SLT PUSH2 0x89B JUMPI PUSH2 0x89A PUSH2 0x788 JUMP JUMPDEST JUMPDEST DUP2 CALLDATALOAD PUSH2 0x8AB DUP5 DUP3 PUSH1 0x20 DUP7 ADD PUSH2 0x846 JUMP JUMPDEST SWAP2 POP POP SWAP3 SWAP2 POP POP JUMP JUMPDEST PUSH0 DUP1 PUSH1 0x40 DUP4 DUP6 SUB SLT ISZERO PUSH2 0x8CA JUMPI PUSH2 0x8C9 PUSH2 0x66A JUMP JUMPDEST JUMPDEST PUSH0 DUP4 ADD CALLDATALOAD PUSH8 0xFFFFFFFFFFFFFFFF DUP2 GT ISZERO PUSH2 0x8E7 JUMPI PUSH2 0x8E6 PUSH2 0x66E JUMP JUMPDEST JUMPDEST PUSH2 0x8F3 DUP6 DUP3 DUP7 ADD PUSH2 0x887 JUMP JUMPDEST SWAP3 POP POP PUSH1 0x20 PUSH2 0x904 DUP6 DUP3 DUP7 ADD PUSH2 0x691 JUMP JUMPDEST SWAP2 POP POP SWAP3 POP SWAP3 SWAP1 POP JUMP JUMPDEST PUSH0 PUSH1 0x40 DUP3 ADD SWAP1 POP DUP2 DUP2 SUB PUSH0 DUP4 ADD MSTORE PUSH2 0x926 DUP2 DUP6 PUSH2 0x730 JUMP JUMPDEST SWAP1 POP PUSH2 0x935 PUSH1 0x20 DUP4 ADD DUP5 PUSH2 0x6D0 JUMP JUMPDEST SWAP4 SWAP3 POP POP POP JUMP JUMPDEST PUSH32 0x4E487B7100000000000000000000000000000000000000000000000000000000 PUSH0 MSTORE PUSH1 0x21 PUSH1 0x4 MSTORE PUSH1 0x24 PUSH0 REVERT JUMPDEST PUSH1 0x2 DUP2 LT PUSH2 0x97A JUMPI PUSH2 0x979 PUSH2 0x93C JUMP JUMPDEST JUMPDEST POP JUMP JUMPDEST PUSH0 DUP2 SWAP1 POP PUSH2 0x98A DUP3 PUSH2 0x969 JUMP JUMPDEST SWAP2 SWAP1 POP JUMP JUMPDEST PUSH0 PUSH2 0x999 DUP3 PUSH2 0x97D JUMP JUMPDEST SWAP1 POP SWAP2 SWAP1 POP JUMP JUMPDEST PUSH2 0x9A9 DUP2 PUSH2 0x98F JUMP JUMPDEST DUP3 MSTORE POP POP JUMP JUMPDEST PUSH0 PUSH1 0x20 DUP3 ADD SWAP1 POP PUSH2 0x9C2 PUSH0 DUP4 ADD DUP5 PUSH2 0x9A0 JUMP JUMPDEST SWAP3 SWAP2 POP POP JUMP JUMPDEST PUSH0 PUSH2 0x9DA PUSH2 0x9D5 DUP5 PUSH2 0x808 JUMP JUMPDEST PUSH2 0x7EE JUMP JUMPDEST SWAP1 POP DUP3 DUP2 MSTORE PUSH1 0x20 DUP2 ADD DUP5 DUP5 DUP5 ADD GT ISZERO PUSH2 0x9F6 JUMPI PUSH2 0x9F5 PUSH2 0x78C JUMP JUMPDEST JUMPDEST PUSH2 0xA01 DUP5 DUP3 DUP6 PUSH2 0x712 JUMP JUMPDEST POP SWAP4 SWAP3 POP POP POP JUMP JUMPDEST PUSH0 DUP3 PUSH1 0x1F DUP4 ADD SLT PUSH2 0xA1D JUMPI PUSH2 0xA1C PUSH2 0x788 JUMP JUMPDEST JUMPDEST DUP2 MLOAD PUSH2 0xA2D DUP5 DUP3 PUSH1 0x20 DUP7 ADD PUSH2 0x9C8 JUMP JUMPDEST SWAP2 POP POP SWAP3 SWAP2 POP POP JUMP JUMPDEST PUSH0 PUSH1 0x20 DUP3 DUP5 SUB SLT ISZERO PUSH2 0xA4B JUMPI PUSH2 0xA4A PUSH2 0x66A JUMP JUMPDEST JUMPDEST PUSH0 DUP3 ADD MLOAD PUSH8 0xFFFFFFFFFFFFFFFF DUP2 GT ISZERO PUSH2 0xA68 JUMPI PUSH2 0xA67 PUSH2 0x66E JUMP JUMPDEST JUMPDEST PUSH2 0xA74 DUP5 DUP3 DUP6 ADD PUSH2 0xA09 JUMP JUMPDEST SWAP2 POP POP SWAP3 SWAP2 POP POP JUMP JUMPDEST PUSH32 0x4E487B7100000000000000000000000000000000000000000000000000000000 PUSH0 MSTORE PUSH1 0x11 PUSH1 0x4 MSTORE PUSH1 0x24 PUSH0 REVERT JUMPDEST PUSH0 PUSH2 0xAB4 DUP3 PUSH2 0x672 JUMP JUMPDEST SWAP2 POP PUSH2 0xABF DUP4 PUSH2 0x672 JUMP JUMPDEST SWAP3 POP DUP3 DUP3 ADD SWAP1 POP DUP1 DUP3 GT ISZERO PUSH2 0xAD7 JUMPI PUSH2 0xAD6 PUSH2 0xA7D JUMP JUMPDEST JUMPDEST SWAP3 SWAP2 POP POP JUMP JUMPDEST PUSH0 PUSH2 0xAE7 DUP3 PUSH2 0x672 JUMP JUMPDEST SWAP2 POP PUSH32 0xFFFFFFFFFFFFFFFFFFFFFFFFFFFFFFFFFFFFFFFFFFFFFFFFFFFFFFFFFFFFFFFF DUP3 SUB PUSH2 0xB19 JUMPI PUSH2 0xB18 PUSH2 0xA7D JUMP JUMPDEST JUMPDEST PUSH1 0x1 DUP3 ADD SWAP1 POP SWAP2 SWAP1 POP JUMP JUMPDEST PUSH32 0x4E487B7100000000000000000000000000000000000000000000000000000000 PUSH0 MSTORE PUSH1 0x22 PUSH1 0x4 MSTORE PUSH1 0x24 PUSH0 REVERT JUMPDEST PUSH0 PUSH1 0x2 DUP3 DIV SWAP1 POP PUSH1 0x1 DUP3 AND DUP1 PUSH2 0xB68 JUMPI PUSH1 0x7F DUP3 AND SWAP2 POP JUMPDEST PUSH1 0x20 DUP3 LT DUP2 SUB PUSH2 0xB7B JUMPI PUSH2 0xB7A PUSH2 0xB24 JUMP JUMPDEST JUMPDEST POP SWAP2 SWAP1 POP JUMP JUMPDEST PUSH0 DUP2 SWAP1 POP DUP2 PUSH0 MSTORE PUSH1 0x20 PUSH0 KECCAK256 SWAP1 POP SWAP2 SWAP1 POP JUMP JUMPDEST PUSH0 PUSH1 0x20 PUSH1 0x1F DUP4 ADD DIV SWAP1 POP SWAP2 SWAP1 POP JUMP JUMPDEST PUSH0 DUP3 DUP3 SHL SWAP1 POP SWAP3 SWAP2 POP POP JUMP JUMPDEST PUSH0 PUSH1 0x8 DUP4 MUL PUSH2 0xBDD PUSH32 0xFFFFFFFFFFFFFFFFFFFFFFFFFFFFFFFFFFFFFFFFFFFFFFFFFFFFFFFFFFFFFFFF DUP3 PUSH2 0xBA2 JUMP JUMPDEST PUSH2 0xBE7 DUP7 DUP4 PUSH2 0xBA2 JUMP JUMPDEST SWAP6 POP DUP1 NOT DUP5 AND SWAP4 POP DUP1 DUP7 AND DUP5 OR SWAP3 POP POP POP SWAP4 SWAP3 POP POP POP JUMP JUMPDEST PUSH0 DUP2 SWAP1 POP SWAP2 SWAP1 POP JUMP JUMPDEST PUSH0 PUSH2 0xC22 PUSH2 0xC1D PUSH2 0xC18 DUP5 PUSH2 0x672 JUMP JUMPDEST PUSH2 0xBFF JUMP JUMPDEST PUSH2 0x672 JUMP JUMPDEST SWAP1 POP SWAP2 SWAP1 POP JUMP JUMPDEST PUSH0 DUP2 SWAP1 POP SWAP2 SWAP1 POP JUMP JUMPDEST PUSH2 0xC3B DUP4 PUSH2 0xC08 JUMP JUMPDEST PUSH2 0xC4F PUSH2 0xC47 DUP3 PUSH2 0xC29 JUMP JUMPDEST DUP5 DUP5 SLOAD PUSH2 0xBAE JUMP JUMPDEST DUP3 SSTORE POP POP POP POP JUMP JUMPDEST PUSH0 SWAP1 JUMP JUMPDEST PUSH2 0xC63 PUSH2 0xC57 JUMP JUMPDEST PUSH2 0xC6E DUP2 DUP5 DUP5 PUSH2 0xC32 JUMP JUMPDEST POP POP POP JUMP JUMPDEST JUMPDEST DUP2 DUP2 LT ISZERO PUSH2 0xC91 JUMPI PUSH2 0xC86 PUSH0 DUP3 PUSH2 0xC5B JUMP JUMPDEST PUSH1 0x1 DUP2 ADD SWAP1 POP PUSH2 0xC74 JUMP JUMPDEST POP POP JUMP JUMPDEST PUSH1 0x1F DUP3 GT ISZERO PUSH2 0xCD6 JUMPI PUSH2 0xCA7 DUP2 PUSH2 0xB81 JUMP JUMPDEST PUSH2 0xCB0 DUP5 PUSH2 0xB93 JUMP JUMPDEST DUP2 ADD PUSH1 0x20 DUP6 LT ISZERO PUSH2 0xCBF JUMPI DUP2 SWAP1 POP JUMPDEST PUSH2 0xCD3 PUSH2 0xCCB DUP6 PUSH2 0xB93 JUMP JUMPDEST DUP4 ADD DUP3 PUSH2 0xC73 JUMP JUMPDEST POP POP JUMPDEST POP POP POP JUMP JUMPDEST PUSH0 DUP3 DUP3 SHR SWAP1 POP SWAP3 SWAP2 POP POP JUMP JUMPDEST PUSH0 PUSH2 0xCF6 PUSH0 NOT DUP5 PUSH1 0x8 MUL PUSH2 0xCDB JUMP JUMPDEST NOT DUP1 DUP4 AND SWAP2 POP POP SWAP3 SWAP2 POP POP JUMP JUMPDEST PUSH0 PUSH2 0xD0E DUP4 DUP4 PUSH2 0xCE7 JUMP JUMPDEST SWAP2 POP DUP3 PUSH1 0x2 MUL DUP3 OR SWAP1 POP SWAP3 SWAP2 POP POP JUMP JUMPDEST PUSH2 0xD27 DUP3 PUSH2 0x6F8 JUMP JUMPDEST PUSH8 0xFFFFFFFFFFFFFFFF DUP2 GT ISZERO PUSH2 0xD40 JUMPI PUSH2 0xD3F PUSH2 0x790 JUMP JUMPDEST JUMPDEST PUSH2 0xD4A DUP3 SLOAD PUSH2 0xB51 JUMP JUMPDEST PUSH2 0xD55 DUP3 DUP3 DUP6 PUSH2 0xC95 JUMP JUMPDEST PUSH0 PUSH1 0x20 SWAP1 POP PUSH1 0x1F DUP4 GT PUSH1 0x1 DUP2 EQ PUSH2 0xD86 JUMPI PUSH0 DUP5 ISZERO PUSH2 0xD74 JUMPI DUP3 DUP8 ADD MLOAD SWAP1 POP JUMPDEST PUSH2 0xD7E DUP6 DUP3 PUSH2 0xD03 JUMP JUMPDEST DUP7 SSTORE POP PUSH2 0xDE5 JUMP JUMPDEST PUSH1 0x1F NOT DUP5 AND PUSH2 0xD94 DUP7 PUSH2 0xB81 JUMP JUMPDEST PUSH0 JUMPDEST DUP3 DUP2 LT ISZERO PUSH2 0xDBB JUMPI DUP5 DUP10 ADD MLOAD DUP3 SSTORE PUSH1 0x1 DUP3 ADD SWAP2 POP PUSH1 0x20 DUP6 ADD SWAP5 POP PUSH1 0x20 DUP2 ADD SWAP1 POP PUSH2 0xD96 JUMP JUMPDEST DUP7 DUP4 LT ISZERO PUSH2 0xDD8 JUMPI DUP5 DUP10 ADD MLOAD PUSH2 0xDD4 PUSH1 0x1F DUP10 AND DUP3 PUSH2 0xCE7 JUMP JUMPDEST DUP4 SSTORE POP JUMPDEST PUSH1 0x1 PUSH1 0x2 DUP9 MUL ADD DUP9 SSTORE POP POP POP JUMPDEST POP POP POP POP POP POP JUMP INVALID LOG2 PUSH5 0x6970667358 0x22 SLT KECCAK256 EXTCODESIZE CALLCODE EXTCODECOPY 0xB3 REVERT CALLDATALOAD NUMBER PUSH14 0xD39844E3E58397823645002F3CC PUSH5 0x5B3BD3A965 0xDE CREATE2 AND 0xA6 PUSH5 0x736F6C6343 STOP ADDMOD BYTE STOP CALLER "
				},
				"gasEstimates": {
					"creation": {
						"codeDepositCost": "723800",
						"executionCost": "758",
						"totalCost": "724558"
					},
					"external": {
						"activateContract()": "24451",
						"addFavoriteNumber(uint256)": "46910",
						"addPerson(string,uint256)": "infinite",
						"callInternalFuction()": "infinite",
						"deactivateContract()": "24473",
						"externalFunction()": "infinite",
						"favoriteNumbers(uint256)": "infinite",
						"getFavoriteNumber()": "2499",
						"isActive()": "2555",
						"isGreaterThan(uint256)": "2823",
						"people(uint256)": "infinite",
						"state()": "2620",
						"storeNumber(uint256)": "22536",
						"sumFavorite()": "infinite",
						"textExternalFuction()": "infinite"
					},
					"internal": {
						"internalFunction()": "infinite"
					}
				},
				"methodIdentifiers": {
					"activateContract()": "8fda356d",
					"addFavoriteNumber(uint256)": "a7e1a364",
					"addPerson(string,uint256)": "6f760f41",
					"callInternalFuction()": "8e89b43d",
					"deactivateContract()": "bca353be",
					"externalFunction()": "3a32b549",
					"favoriteNumbers(uint256)": "29cd1d96",
					"getFavoriteNumber()": "a621d15e",
					"isActive()": "22f3e2d4",
					"isGreaterThan(uint256)": "cb6a33f8",
					"people(uint256)": "9e7a13ad",
					"state()": "c19d93fb",
					"storeNumber(uint256)": "b6339418",
					"sumFavorite()": "55987940",
					"textExternalFuction()": "2fb4b0c7"
				}
			},
			"storageLayout": {
				"storage": [
					{
						"astId": 3,
						"contract": "simplestorage.sol/simplestorage.sol:SimpleStorage",
						"label": "favoriteNumber",
						"offset": 0,
						"slot": "0",
						"type": "t_uint256"
					},
					{
						"astId": 6,
						"contract": "simplestorage.sol/simplestorage.sol:SimpleStorage",
						"label": "favoriteNumbers",
						"offset": 0,
						"slot": "1",
						"type": "t_array(t_uint256)dyn_storage"
					},
					{
						"astId": 15,
						"contract": "simplestorage.sol/simplestorage.sol:SimpleStorage",
						"label": "people",
						"offset": 0,
						"slot": "2",
						"type": "t_array(t_struct(Person)11_storage)dyn_storage"
					},
					{
						"astId": 21,
						"contract": "simplestorage.sol/simplestorage.sol:SimpleStorage",
						"label": "state",
						"offset": 0,
						"slot": "3",
						"type": "t_enum(ContractState)18"
					}
				],
				"types": {
					"t_array(t_struct(Person)11_storage)dyn_storage": {
						"base": "t_struct(Person)11_storage",
						"encoding": "dynamic_array",
						"label": "struct SimpleStorage.Person[]",
						"numberOfBytes": "32"
					},
					"t_array(t_uint256)dyn_storage": {
						"base": "t_uint256",
						"encoding": "dynamic_array",
						"label": "uint256[]",
						"numberOfBytes": "32"
					},
					"t_enum(ContractState)18": {
						"encoding": "inplace",
						"label": "enum SimpleStorage.ContractState",
						"numberOfBytes": "1"
					},
					"t_string_storage": {
						"encoding": "bytes",
						"label": "string",
						"numberOfBytes": "32"
					},
					"t_struct(Person)11_storage": {
						"encoding": "inplace",
						"label": "struct SimpleStorage.Person",
						"members": [
							{
								"astId": 8,
								"contract": "simplestorage.sol/simplestorage.sol:SimpleStorage",
								"label": "name",
								"offset": 0,
								"slot": "0",
								"type": "t_string_storage"
							},
							{
								"astId": 10,
								"contract": "simplestorage.sol/simplestorage.sol:SimpleStorage",
								"label": "favoriteNumber",
								"offset": 0,
								"slot": "1",
								"type": "t_uint256"
							}
						],
						"numberOfBytes": "64"
					},
					"t_uint256": {
						"encoding": "inplace",
						"label": "uint256",
						"numberOfBytes": "32"
					}
				}
			},
			"userdoc": {
				"kind": "user",
				"methods": {},
				"version": 1
			}
		}
	}
}